{
  "_format": "hh-sol-artifact-1",
  "contractName": "TimedDealProvider",
  "sourceName": "contracts/SimpleProviders/TimedDealProvider/TimedDealProvider.sol",
  "abi": [
    {
      "inputs": [
        {
          "internalType": "contract ILockDealNFT",
          "name": "_lockDealNFT",
          "type": "address"
        },
        {
          "internalType": "address",
          "name": "_provider",
          "type": "address"
        }
      ],
      "stateMutability": "nonpayable",
      "type": "constructor"
    },
    {
      "anonymous": false,
      "inputs": [
        {
          "indexed": true,
          "internalType": "uint256",
          "name": "poolId",
          "type": "uint256"
        },
        {
          "indexed": false,
          "internalType": "uint256[]",
          "name": "params",
          "type": "uint256[]"
        }
      ],
      "name": "UpdateParams",
      "type": "event"
    },
    {
      "inputs": [
        {
          "internalType": "address[]",
          "name": "addresses",
          "type": "address[]"
        },
        {
          "internalType": "uint256[]",
          "name": "params",
          "type": "uint256[]"
        },
        {
          "internalType": "bytes",
          "name": "signature",
          "type": "bytes"
        }
      ],
      "name": "createNewPool",
      "outputs": [
        {
          "internalType": "uint256",
          "name": "poolId",
          "type": "uint256"
        }
      ],
      "stateMutability": "nonpayable",
      "type": "function"
    },
    {
      "inputs": [],
      "name": "currentParamsTargetLength",
      "outputs": [
        {
          "internalType": "uint256",
          "name": "",
          "type": "uint256"
        }
      ],
      "stateMutability": "view",
      "type": "function"
    },
    {
      "inputs": [],
      "name": "firewallAdmin",
      "outputs": [
        {
          "internalType": "address",
          "name": "",
          "type": "address"
        }
      ],
      "stateMutability": "view",
      "type": "function"
    },
    {
      "inputs": [
        {
          "internalType": "uint256",
          "name": "poolId",
          "type": "uint256"
        }
      ],
      "name": "getParams",
      "outputs": [
        {
          "internalType": "uint256[]",
          "name": "params",
          "type": "uint256[]"
        }
      ],
      "stateMutability": "view",
      "type": "function"
    },
    {
      "inputs": [
        {
          "internalType": "uint256",
          "name": "",
          "type": "uint256"
        }
      ],
      "name": "getSubProvidersPoolIds",
      "outputs": [
        {
          "internalType": "uint256[]",
          "name": "poolIds",
          "type": "uint256[]"
        }
      ],
      "stateMutability": "view",
      "type": "function"
    },
    {
      "inputs": [
        {
          "internalType": "uint256",
          "name": "poolId",
          "type": "uint256"
        }
      ],
      "name": "getWithdrawableAmount",
      "outputs": [
        {
          "internalType": "uint256",
          "name": "",
          "type": "uint256"
        }
      ],
      "stateMutability": "view",
      "type": "function"
    },
    {
      "inputs": [],
      "name": "lockDealNFT",
      "outputs": [
        {
          "internalType": "contract ILockDealNFT",
          "name": "",
          "type": "address"
        }
      ],
      "stateMutability": "view",
      "type": "function"
    },
    {
      "inputs": [],
      "name": "name",
      "outputs": [
        {
          "internalType": "string",
          "name": "",
          "type": "string"
        }
      ],
      "stateMutability": "view",
      "type": "function"
    },
    {
      "inputs": [
        {
          "internalType": "uint256",
          "name": "",
          "type": "uint256"
        }
      ],
      "name": "poolIdToAmount",
      "outputs": [
        {
          "internalType": "uint256",
          "name": "",
          "type": "uint256"
        }
      ],
      "stateMutability": "view",
      "type": "function"
    },
    {
      "inputs": [
        {
          "internalType": "uint256",
          "name": "",
          "type": "uint256"
        }
      ],
      "name": "poolIdToTime",
      "outputs": [
        {
          "internalType": "uint256",
          "name": "",
          "type": "uint256"
        }
      ],
      "stateMutability": "view",
      "type": "function"
    },
    {
      "inputs": [],
      "name": "provider",
      "outputs": [
        {
          "internalType": "contract ISimpleProvider",
          "name": "",
          "type": "address"
        }
      ],
      "stateMutability": "view",
      "type": "function"
    },
    {
      "inputs": [
        {
          "internalType": "uint256",
          "name": "poolId",
          "type": "uint256"
        },
        {
          "internalType": "uint256[]",
          "name": "params",
          "type": "uint256[]"
        }
      ],
      "name": "registerPool",
      "outputs": [],
      "stateMutability": "nonpayable",
      "type": "function"
    },
    {
      "inputs": [
        {
          "internalType": "address",
          "name": "_firewall",
          "type": "address"
        }
      ],
      "name": "setFirewall",
      "outputs": [],
      "stateMutability": "nonpayable",
      "type": "function"
    },
    {
      "inputs": [
        {
          "internalType": "address",
          "name": "_firewallAdmin",
          "type": "address"
        }
      ],
      "name": "setFirewallAdmin",
      "outputs": [],
      "stateMutability": "nonpayable",
      "type": "function"
    },
    {
      "inputs": [
        {
          "internalType": "uint256",
          "name": "oldPoolId",
          "type": "uint256"
        },
        {
          "internalType": "uint256",
          "name": "newPoolId",
          "type": "uint256"
        },
        {
          "internalType": "uint256",
          "name": "ratio",
          "type": "uint256"
        }
      ],
      "name": "split",
      "outputs": [],
      "stateMutability": "nonpayable",
      "type": "function"
    },
    {
      "inputs": [
        {
          "internalType": "bytes4",
          "name": "interfaceId",
          "type": "bytes4"
        }
      ],
      "name": "supportsInterface",
      "outputs": [
        {
          "internalType": "bool",
          "name": "",
          "type": "bool"
        }
      ],
      "stateMutability": "view",
      "type": "function"
    },
    {
      "inputs": [
        {
          "internalType": "uint256",
          "name": "poolId",
          "type": "uint256"
        }
      ],
      "name": "withdraw",
      "outputs": [
        {
          "internalType": "uint256",
          "name": "withdrawnAmount",
          "type": "uint256"
        },
        {
          "internalType": "bool",
          "name": "isFinal",
          "type": "bool"
        }
      ],
      "stateMutability": "nonpayable",
      "type": "function"
    },
    {
      "inputs": [
        {
          "internalType": "uint256",
          "name": "poolId",
          "type": "uint256"
        },
        {
          "internalType": "uint256",
          "name": "amount",
          "type": "uint256"
        }
      ],
      "name": "withdraw",
      "outputs": [
        {
          "internalType": "uint256",
          "name": "withdrawnAmount",
          "type": "uint256"
        },
        {
          "internalType": "bool",
          "name": "isFinal",
          "type": "bool"
        }
      ],
      "stateMutability": "nonpayable",
      "type": "function"
    }
  ],
  "bytecode": "0x60806040523480156200001157600080fd5b50604051620022103803806200221083398101604081905262000034916200013f565b600580546001600160a01b031990811690915560068054909116331790556001600160a01b038216158015906200007357506001600160a01b03811615155b620000b65760405162461bcd60e51b815260206004820152600f60248201526e696e76616c6964206164647265737360881b604482015260640160405180910390fd5b600080546001600160a01b038084166001600160a01b03199283161790925560048054928516929091169190911790556040805180820190915260118152702a34b6b2b22232b0b6283937bb34b232b960791b60208201526003906200011d908262000223565b505050620002ef565b6001600160a01b03811681146200013c57600080fd5b50565b600080604083850312156200015357600080fd5b8251620001608162000126565b6020840151909250620001738162000126565b809150509250929050565b634e487b7160e01b600052604160045260246000fd5b600181811c90821680620001a957607f821691505b602082108103620001ca57634e487b7160e01b600052602260045260246000fd5b50919050565b601f8211156200021e57600081815260208120601f850160051c81016020861015620001f95750805b601f850160051c820191505b818110156200021a5782815560010162000205565b5050505b505050565b81516001600160401b038111156200023f576200023f6200017e565b620002578162000250845462000194565b84620001d0565b602080601f8311600181146200028f5760008415620002765750858301515b600019600386901b1c1916600185901b1785556200021a565b600085815260208120601f198616915b82811015620002c0578886015182559484019460019091019084016200029f565b5085821015620002df5787850151600019600388901b60f8161c191681555b5050505050600190811b01905550565b611f1180620002ff6000396000f3fe608060405234801561001057600080fd5b50600436106101165760003560e01c80634b2fbecf116100a2578063caf0887d11610071578063caf0887d1461028d578063d1438c3f146102a0578063e9a9fce2146102b4578063f05c8582146102c7578063f7d646b0146102da57600080fd5b80634b2fbecf14610232578063734b719814610252578063875f4384146102675780638c36d02d1461027a57600080fd5b80631189edd4116100e95780631189edd4146101a357806314877c38146101d15780632b227bc4146101e45780632e1a7d4d146101f7578063441a3e701461021f57600080fd5b806301ffc9a71461011b57806306fdde0314610143578063085d48831461015857806308a4f07214610183575b600080fd5b61012e610129366004611869565b6102e2565b60405190151581526020015b60405180910390f35b61014b61034f565b60405161013a91906118d9565b60005461016b906001600160a01b031681565b6040516001600160a01b03909116815260200161013a565b6101966101913660046118ec565b6103dd565b60405161013a9190611905565b6101c36101b13660046118ec565b60026020526000908152604090205481565b60405190815260200161013a565b6101c36101df36600461198e565b610556565b60045461016b906001600160a01b031681565b61020a6102053660046118ec565b610875565b6040805192835290151560208301520161013a565b61020a61022d366004611a54565b61099f565b6101c36102403660046118ec565b60016020526000908152604090205481565b610265610260366004611a76565b610ac1565b005b6101c36102753660046118ec565b610b6c565b610265610288366004611a76565b610c74565b61026561029b366004611a9f565b610cc0565b6101966102ae3660046118ec565b50606090565b6102656102c2366004611acb565b610f69565b60065461016b906001600160a01b031681565b6101c361106e565b60006001600160e01b0319821663b075456560e01b148061031357506001600160e01b031982166329c8a06d60e01b145b8061032e57506001600160e01b03198216630441a3e760e41b145b8061034957506301ffc9a760e01b6001600160e01b03198316145b92915050565b6003805461035c90611b17565b80601f016020809104026020016040519081016040528092919081815260200182805461038890611b17565b80156103d55780601f106103aa576101008083540402835291602001916103d5565b820191906000526020600020905b8154815290600101906020018083116103b857829003601f168201915b505050505081565b600054604051630452783960e11b81526004810183905260609182916001600160a01b03909116906308a4f07290602401600060405180830381865afa15801561042b573d6000803e3d6000fd5b505050506040513d6000823e601f3d908101601f191682016040526104539190810190611b67565b60408051600480825260a08201909252919250602082016080803683370190505091508060008151811061048957610489611c25565b6020026020010151826000815181106104a4576104a4611c25565b602002602001018181525050806001815181106104c3576104c3611c25565b6020026020010151826001815181106104de576104de611c25565b60200260200101818152505060016000848152602001908152602001600020548260028151811061051157610511611c25565b60200260200101818152505060026000848152602001908152602001600020548260038151811061054457610544611c25565b60200260200101818152505050919050565b6005546000906001600160a01b03166106815785600261057682826110f6565b8561057f61106e565b610589828261114a565b6004546001600160a01b031663604e38ed8c8c6000816105ab576105ab611c25565b90506020020160208101906105c09190611a76565b8d8d60018181106105d3576105d3611c25565b90506020020160208101906105e89190611a76565b338d8d60008181106105fc576105fc611c25565b90506020020135308d8d6040518863ffffffff1660e01b81526004016106289796959493929190611c64565b6020604051808303816000875af1158015610647573d6000803e3d6000fd5b505050506040513d601f19601f8201168201806040525081019061066b9190611cb5565b9450610678858a8a611192565b5050505061086b565b600554604051631bf8659f60e21b815234916001600160a01b031690636fe1967c906106b890339060009036908790600401611cce565b600060405180830381600087803b1580156106d257600080fd5b505af11580156106e6573d6000803e3d6000fd5b505050508787905060026106fa82826110f6565b8661070361106e565b61070d828261114a565b6004546001600160a01b031663604e38ed8d8d60008161072f5761072f611c25565b90506020020160208101906107449190611a76565b8e8e600181811061075757610757611c25565b905060200201602081019061076c9190611a76565b338e8e600081811061078057610780611c25565b90506020020135308e8e6040518863ffffffff1660e01b81526004016107ac9796959493929190611c64565b6020604051808303816000875af11580156107cb573d6000803e3d6000fd5b505050506040513d601f19601f820116820180604052508101906107ef9190611cb5565b95506107fc868b8b611192565b50506005546040516393163a9160e01b81526001600160a01b0390911692506393163a91915061083790339060009036908790600401611cce565b600060405180830381600087803b15801561085157600080fd5b505af1158015610865573d6000803e3d6000fd5b50505050505b9695505050505050565b60055460009081906001600160a01b03166108ae576108926114eb565b6108a48361089f85610b6c565b611558565b9094909350915050565b600554604051631bf8659f60e21b815234916001600160a01b031690636fe1967c906108e590339060009036908790600401611cce565b600060405180830381600087803b1580156108ff57600080fd5b505af1158015610913573d6000803e3d6000fd5b5050505061091f6114eb565b61092c8461089f86610b6c565b6005546040516393163a9160e01b81529295509093506001600160a01b0316906393163a919061096790339060009036908790600401611cce565b600060405180830381600087803b15801561098157600080fd5b505af1158015610995573d6000803e3d6000fd5b5050505050915091565b60055460009081906001600160a01b03166109d0576109bc611789565b6109c68484611558565b9092509050610aba565b600554604051631bf8659f60e21b815234916001600160a01b031690636fe1967c90610a0790339060009036908790600401611cce565b600060405180830381600087803b158015610a2157600080fd5b505af1158015610a35573d6000803e3d6000fd5b50505050610a41611789565b610a4b8585611558565b6005546040516393163a9160e01b81529295509093506001600160a01b0316906393163a9190610a8690339060009036908790600401611cce565b600060405180830381600087803b158015610aa057600080fd5b505af1158015610ab4573d6000803e3d6000fd5b50505050505b9250929050565b6006546001600160a01b03163314610af45760405162461bcd60e51b8152600401610aeb90611d04565b60405180910390fd5b6001600160a01b038116610b4a5760405162461bcd60e51b815260206004820152601e60248201527f4669726577616c6c436f6e73756d65723a207a65726f206164647265737300006044820152606401610aeb565b600680546001600160a01b0319166001600160a01b0392909216919091179055565b600080610b78836103dd565b9050600081600081518110610b8f57610b8f611c25565b60200260200101519050600082600181518110610bae57610bae611c25565b60200260200101519050600083600281518110610bcd57610bcd611c25565b60200260200101519050600084600381518110610bec57610bec611c25565b6020026020010151905082421015610c0b575060009695505050505050565b428211610c1d57509195945050505050565b6000610c298484611d5e565b90506000610c378542611d5e565b9050600082610c468386611d71565b610c509190611d88565b9050610c5c8785611d5e565b610c669082611d5e565b9a9950505050505050505050565b6006546001600160a01b03163314610c9e5760405162461bcd60e51b8152600401610aeb90611d04565b600580546001600160a01b0319166001600160a01b0392909216919091179055565b6005546001600160a01b0316610db457610cd8611789565b60005460405163caf0887d60e01b81526004810185905260248101849052604481018390526001600160a01b039091169063caf0887d90606401600060405180830381600087803b158015610d2c57600080fd5b505af1158015610d40573d6000803e3d6000fd5b505050600084815260026020526040812054909150610d5f9083611842565b905080600260008681526020019081526020016000206000828254610d849190611d5e565b90915550506000838152600260209081526040808320939093559481526001909452808420549284529092205550565b600554604051631bf8659f60e21b815234916001600160a01b031690636fe1967c90610deb90339060009036908790600401611cce565b600060405180830381600087803b158015610e0557600080fd5b505af1158015610e19573d6000803e3d6000fd5b50505050610e25611789565b60005460405163caf0887d60e01b81526004810186905260248101859052604481018490526001600160a01b039091169063caf0887d90606401600060405180830381600087803b158015610e7957600080fd5b505af1158015610e8d573d6000803e3d6000fd5b505050600085815260026020526040812054909150610eac9084611842565b905080600260008781526020019081526020016000206000828254610ed19190611d5e565b909155505060008481526002602090815260408083209390935586825260019052818120548582528282205560055491516393163a9160e01b81526001600160a01b03909216916393163a9191610f319133919036908790600401611cce565b600060405180830381600087803b158015610f4b57600080fd5b505af1158015610f5f573d6000803e3d6000fd5b5050505050505050565b6005546001600160a01b0316610fa657610f81611789565b80610f8a61106e565b610f94828261114a565b610f9f858585611192565b5050505050565b600554604051631bf8659f60e21b815234916001600160a01b031690636fe1967c90610fdd90339060009036908790600401611cce565b600060405180830381600087803b158015610ff757600080fd5b505af115801561100b573d6000803e3d6000fd5b50505050611017611789565b8161102061106e565b61102a828261114a565b611035868686611192565b50506005546040516393163a9160e01b81526001600160a01b03909116906393163a9190610f3190339060009036908790600401611cce565b60008060009054906101000a90046001600160a01b03166001600160a01b031663f7d646b06040518163ffffffff1660e01b8152600401602060405180830381865afa1580156110c2573d6000803e3d6000fd5b505050506040513d601f19601f820116820180604052508101906110e69190611cb5565b6110f1906001611daa565b905090565b808210156111465760405162461bcd60e51b815260206004820152601860248201527f696e76616c696420616464726573736573206c656e67746800000000000000006044820152606401610aeb565b5050565b808210156111465760405162461bcd60e51b81526020600482015260156024820152740d2dcecc2d8d2c840e0c2e4c2dae640d8cadccee8d605b1b6044820152606401610aeb565b600554632e67190b60e21b906001600160a01b03166112c157828260018181106111be576111be611c25565b90506020020135838360028181106111d8576111d8611c25565b9050602002013510156111fd5760405162461bcd60e51b8152600401610aeb90611dbd565b8282600281811061121057611210611c25565b6000878152600160209081526040822092029390930135905550839083908161123b5761123b611c25565b60008781526002602090815260408083209390910294909401359091555491516374d4fe7160e11b81526001600160a01b039092169163e9a9fce2915061128a90879087908790600401611e0a565b600060405180830381600087803b1580156112a457600080fd5b505af11580156112b8573d6000803e3d6000fd5b505050506114e5565b600554604080516001600160e01b031984166020820152815160048183030181526024820192839052631bf8659f60e21b90925234926001600160a01b031691636fe1967c916113179133918690602801611e4b565b600060405180830381600087803b15801561133157600080fd5b505af1158015611345573d6000803e3d6000fd5b505050508383600181811061135c5761135c611c25565b905060200201358484600281811061137657611376611c25565b90506020020135101561139b5760405162461bcd60e51b8152600401610aeb90611dbd565b838360028181106113ae576113ae611c25565b600088815260016020908152604082209202939093013590555084908490816113d9576113d9611c25565b60008881526002602090815260408083209390910294909401359091555491516374d4fe7160e11b81526001600160a01b039092169163e9a9fce2915061142890889088908890600401611e0a565b600060405180830381600087803b15801561144257600080fd5b505af1158015611456573d6000803e3d6000fd5b5050600554604080516001600160e01b0319871660208201528151600481830301815260248201928390526393163a9160e01b9092526001600160a01b0390921693506393163a9192506114b1913391908690602801611e4b565b600060405180830381600087803b1580156114cb57600080fd5b505af11580156114df573d6000803e3d6000fd5b50505050505b50505050565b6004546001600160a01b031633146115565760405162461bcd60e51b815260206004820152602860248201527f6f6e6c79204e465420636f6e74726163742063616e2063616c6c207468697320604482015267333ab731ba34b7b760c11b6064820152608401610aeb565b565b600554600090819063278afc8b60e21b906001600160a01b03166115f557600054604051630441a3e760e41b815260048101879052602481018690526001600160a01b039091169063441a3e709060440160408051808303816000875af11580156115c7573d6000803e3d6000fd5b505050506040513d601f19601f820116820180604052508101906115eb9190611e94565b9093509150611781565b600554604080516001600160e01b031984166020820152815160048183030181526024820192839052631bf8659f60e21b90925234926001600160a01b031691636fe1967c9161164b9133918690602801611e4b565b600060405180830381600087803b15801561166557600080fd5b505af1158015611679573d6000803e3d6000fd5b5050600054604051630441a3e760e41b8152600481018a9052602481018990526001600160a01b03909116925063441a3e70915060440160408051808303816000875af11580156116ce573d6000803e3d6000fd5b505050506040513d601f19601f820116820180604052508101906116f29190611e94565b600554604080516001600160e01b0319871660208201528151600481830301815260248201928390526393163a9160e01b9092529397509195506001600160a01b0316916393163a919161174d913391908690602801611e4b565b600060405180830381600087803b15801561176757600080fd5b505af115801561177b573d6000803e3d6000fd5b50505050505b509250929050565b600480546040516326749ad760e01b815233928101929092526001600160a01b0316906326749ad790602401602060405180830381865afa1580156117d2573d6000803e3d6000fd5b505050506040513d601f19601f820116820180604052508101906117f69190611ec0565b6115565760405162461bcd60e51b815260206004820152601860248201527f696e76616c69642070726f7669646572206164647265737300000000000000006044820152606401610aeb565b6000683635c9adc5dea000006118588385611d71565b6118629190611d88565b9392505050565b60006020828403121561187b57600080fd5b81356001600160e01b03198116811461186257600080fd5b6000815180845260005b818110156118b95760208185018101518683018201520161189d565b506000602082860101526020601f19601f83011685010191505092915050565b6020815260006118626020830184611893565b6000602082840312156118fe57600080fd5b5035919050565b6020808252825182820181905260009190848201906040850190845b8181101561193d57835183529284019291840191600101611921565b50909695505050505050565b60008083601f84011261195b57600080fd5b50813567ffffffffffffffff81111561197357600080fd5b6020830191508360208260051b8501011115610aba57600080fd5b600080600080600080606087890312156119a757600080fd5b863567ffffffffffffffff808211156119bf57600080fd5b6119cb8a838b01611949565b909850965060208901359150808211156119e457600080fd5b6119f08a838b01611949565b90965094506040890135915080821115611a0957600080fd5b818901915089601f830112611a1d57600080fd5b813581811115611a2c57600080fd5b8a6020828501011115611a3e57600080fd5b6020830194508093505050509295509295509295565b60008060408385031215611a6757600080fd5b50508035926020909101359150565b600060208284031215611a8857600080fd5b81356001600160a01b038116811461186257600080fd5b600080600060608486031215611ab457600080fd5b505081359360208301359350604090920135919050565b600080600060408486031215611ae057600080fd5b83359250602084013567ffffffffffffffff811115611afe57600080fd5b611b0a86828701611949565b9497909650939450505050565b600181811c90821680611b2b57607f821691505b602082108103611b4b57634e487b7160e01b600052602260045260246000fd5b50919050565b634e487b7160e01b600052604160045260246000fd5b60006020808385031215611b7a57600080fd5b825167ffffffffffffffff80821115611b9257600080fd5b818501915085601f830112611ba657600080fd5b815181811115611bb857611bb8611b51565b8060051b604051601f19603f83011681018181108582111715611bdd57611bdd611b51565b604052918252848201925083810185019188831115611bfb57600080fd5b938501935b82851015611c1957845184529385019392850192611c00565b98975050505050505050565b634e487b7160e01b600052603260045260246000fd5b81835281816020850137506000828201602090810191909152601f909101601f19169091010190565b6001600160a01b03888116825287811660208301528681166040830152606082018690528416608082015260c060a08201819052600090611ca89083018486611c3b565b9998505050505050505050565b600060208284031215611cc757600080fd5b5051919050565b6001600160a01b0385168152606060208201819052600090611cf39083018587611c3b565b905082604083015295945050505050565b60208082526024908201527f4669726577616c6c436f6e73756d65723a206e6f74206669726577616c6c20616040820152633236b4b760e11b606082015260800190565b634e487b7160e01b600052601160045260246000fd5b8181038181111561034957610349611d48565b808202811582820484141761034957610349611d48565b600082611da557634e487b7160e01b600052601260045260246000fd5b500490565b8082018082111561034957610349611d48565b6020808252602d908201527f46696e6973682074696d652073686f756c64206265206772656174657220746860408201526c616e2073746172742074696d6560981b606082015260800190565b838152604060208201819052810182905260006001600160fb1b03831115611e3157600080fd5b8260051b8085606085013791909101606001949350505050565b6001600160a01b0384168152606060208201819052600090611e6f90830185611893565b9050826040830152949350505050565b80518015158114611e8f57600080fd5b919050565b60008060408385031215611ea757600080fd5b82519150611eb760208401611e7f565b90509250929050565b600060208284031215611ed257600080fd5b61186282611e7f56fea26469706673582212203925eb549c054605c3ecaceb5b0c91347a9371d62d233b6526d3ae43505f088964736f6c63430008130033",
  "linkReferences": {},
  "deployedLinkReferences": {}
}