{
  "_format": "hh-sol-artifact-1",
  "contractName": "DealProvider",
  "sourceName": "contracts/SimpleProviders/DealProvider/DealProvider.sol",
  "abi": [
    {
      "inputs": [
        {
          "internalType": "contract ILockDealNFT",
          "name": "_nftContract",
          "type": "address"
        }
      ],
      "stateMutability": "nonpayable",
      "type": "constructor"
    },
    {
      "anonymous": false,
      "inputs": [
        {
          "indexed": true,
          "internalType": "uint256",
          "name": "poolId",
          "type": "uint256"
        },
        {
          "indexed": false,
          "internalType": "uint256[]",
          "name": "params",
          "type": "uint256[]"
        }
      ],
      "name": "UpdateParams",
      "type": "event"
    },
    {
      "inputs": [
        {
          "internalType": "address[]",
          "name": "addresses",
          "type": "address[]"
        },
        {
          "internalType": "uint256[]",
          "name": "params",
          "type": "uint256[]"
        },
        {
          "internalType": "bytes",
          "name": "signature",
          "type": "bytes"
        }
      ],
      "name": "createNewPool",
      "outputs": [
        {
          "internalType": "uint256",
          "name": "poolId",
          "type": "uint256"
        }
      ],
      "stateMutability": "nonpayable",
      "type": "function"
    },
    {
      "inputs": [],
      "name": "currentParamsTargetLength",
      "outputs": [
        {
          "internalType": "uint256",
          "name": "",
          "type": "uint256"
        }
      ],
      "stateMutability": "view",
      "type": "function"
    },
    {
      "inputs": [],
      "name": "firewallAdmin",
      "outputs": [
        {
          "internalType": "address",
          "name": "",
          "type": "address"
        }
      ],
      "stateMutability": "view",
      "type": "function"
    },
    {
      "inputs": [
        {
          "internalType": "uint256",
          "name": "poolId",
          "type": "uint256"
        }
      ],
      "name": "getParams",
      "outputs": [
        {
          "internalType": "uint256[]",
          "name": "params",
          "type": "uint256[]"
        }
      ],
      "stateMutability": "view",
      "type": "function"
    },
    {
      "inputs": [
        {
          "internalType": "uint256",
          "name": "",
          "type": "uint256"
        }
      ],
      "name": "getSubProvidersPoolIds",
      "outputs": [
        {
          "internalType": "uint256[]",
          "name": "poolIds",
          "type": "uint256[]"
        }
      ],
      "stateMutability": "view",
      "type": "function"
    },
    {
      "inputs": [
        {
          "internalType": "uint256",
          "name": "poolId",
          "type": "uint256"
        }
      ],
      "name": "getWithdrawableAmount",
      "outputs": [
        {
          "internalType": "uint256",
          "name": "",
          "type": "uint256"
        }
      ],
      "stateMutability": "view",
      "type": "function"
    },
    {
      "inputs": [],
      "name": "lockDealNFT",
      "outputs": [
        {
          "internalType": "contract ILockDealNFT",
          "name": "",
          "type": "address"
        }
      ],
      "stateMutability": "view",
      "type": "function"
    },
    {
      "inputs": [],
      "name": "name",
      "outputs": [
        {
          "internalType": "string",
          "name": "",
          "type": "string"
        }
      ],
      "stateMutability": "view",
      "type": "function"
    },
    {
      "inputs": [
        {
          "internalType": "uint256",
          "name": "",
          "type": "uint256"
        }
      ],
      "name": "poolIdToAmount",
      "outputs": [
        {
          "internalType": "uint256",
          "name": "",
          "type": "uint256"
        }
      ],
      "stateMutability": "view",
      "type": "function"
    },
    {
      "inputs": [
        {
          "internalType": "uint256",
          "name": "poolId",
          "type": "uint256"
        },
        {
          "internalType": "uint256[]",
          "name": "params",
          "type": "uint256[]"
        }
      ],
      "name": "registerPool",
      "outputs": [],
      "stateMutability": "nonpayable",
      "type": "function"
    },
    {
      "inputs": [
        {
          "internalType": "address",
          "name": "_firewall",
          "type": "address"
        }
      ],
      "name": "setFirewall",
      "outputs": [],
      "stateMutability": "nonpayable",
      "type": "function"
    },
    {
      "inputs": [
        {
          "internalType": "address",
          "name": "_firewallAdmin",
          "type": "address"
        }
      ],
      "name": "setFirewallAdmin",
      "outputs": [],
      "stateMutability": "nonpayable",
      "type": "function"
    },
    {
      "inputs": [
        {
          "internalType": "uint256",
          "name": "oldPoolId",
          "type": "uint256"
        },
        {
          "internalType": "uint256",
          "name": "newPoolId",
          "type": "uint256"
        },
        {
          "internalType": "uint256",
          "name": "ratio",
          "type": "uint256"
        }
      ],
      "name": "split",
      "outputs": [],
      "stateMutability": "nonpayable",
      "type": "function"
    },
    {
      "inputs": [
        {
          "internalType": "bytes4",
          "name": "interfaceId",
          "type": "bytes4"
        }
      ],
      "name": "supportsInterface",
      "outputs": [
        {
          "internalType": "bool",
          "name": "",
          "type": "bool"
        }
      ],
      "stateMutability": "view",
      "type": "function"
    },
    {
      "inputs": [
        {
          "internalType": "uint256",
          "name": "poolId",
          "type": "uint256"
        }
      ],
      "name": "withdraw",
      "outputs": [
        {
          "internalType": "uint256",
          "name": "withdrawnAmount",
          "type": "uint256"
        },
        {
          "internalType": "bool",
          "name": "isFinal",
          "type": "bool"
        }
      ],
      "stateMutability": "nonpayable",
      "type": "function"
    },
    {
      "inputs": [
        {
          "internalType": "uint256",
          "name": "poolId",
          "type": "uint256"
        },
        {
          "internalType": "uint256",
          "name": "amount",
          "type": "uint256"
        }
      ],
      "name": "withdraw",
      "outputs": [
        {
          "internalType": "uint256",
          "name": "withdrawnAmount",
          "type": "uint256"
        },
        {
          "internalType": "bool",
          "name": "isFinal",
          "type": "bool"
        }
      ],
      "stateMutability": "nonpayable",
      "type": "function"
    }
  ],
  "bytecode": "0x60806040523480156200001157600080fd5b5060405162001b4b38038062001b4b8339810160408190526200003491620000f4565b600380546001600160a01b031990811690915560048054909116331790556001600160a01b0381166200009f5760405162461bcd60e51b815260206004820152600f60248201526e696e76616c6964206164647265737360881b604482015260640160405180910390fd5b600280546001600160a01b0319166001600160a01b03831617905560408051808201909152600c81526b2232b0b6283937bb34b232b960a11b6020820152600190620000ec9082620001cb565b505062000297565b6000602082840312156200010757600080fd5b81516001600160a01b03811681146200011f57600080fd5b9392505050565b634e487b7160e01b600052604160045260246000fd5b600181811c908216806200015157607f821691505b6020821081036200017257634e487b7160e01b600052602260045260246000fd5b50919050565b601f821115620001c657600081815260208120601f850160051c81016020861015620001a15750805b601f850160051c820191505b81811015620001c257828155600101620001ad565b5050505b505050565b81516001600160401b03811115620001e757620001e762000126565b620001ff81620001f884546200013c565b8462000178565b602080601f8311600181146200023757600084156200021e5750858301515b600019600386901b1c1916600185901b178555620001c2565b600085815260208120601f198616915b82811015620002685788860151825594840194600190910190840162000247565b5085821015620002875787850151600019600388901b60f8161c191681555b5050505050600190811b01905550565b6118a480620002a76000396000f3fe608060405234801561001057600080fd5b50600436106101005760003560e01c8063734b719811610097578063d1438c3f11610066578063d1438c3f14610264578063e9a9fce214610278578063f05c85821461028b578063f7d646b01461029e57600080fd5b8063734b719814610209578063875f43841461021e5780638c36d02d1461023e578063caf0887d1461025157600080fd5b806314877c38116100d357806314877c38146101905780632b227bc4146101a35780632e1a7d4d146101ce578063441a3e70146101f657600080fd5b806301ffc9a71461010557806306fdde031461012d57806308a4f072146101425780631189edd414610162575b600080fd5b610118610113366004611329565b6102a5565b60405190151581526020015b60405180910390f35b610135610312565b6040516101249190611399565b6101556101503660046113ac565b6103a0565b60405161012491906113c5565b6101826101703660046113ac565b60006020819052908152604090205481565b604051908152602001610124565b61018261019e36600461144e565b6103f9565b6002546101b6906001600160a01b031681565b6040516001600160a01b039091168152602001610124565b6101e16101dc3660046113ac565b61070c565b60408051928352901515602083015201610124565b6101e1610204366004611514565b610850565b61021c610217366004611536565b610972565b005b61018261022c3660046113ac565b60009081526020819052604090205490565b61021c61024c366004611536565b610a1d565b61021c61025f36600461155f565b610a69565b6101556102723660046113ac565b50606090565b61021c61028636600461158b565b610c62565b6004546101b6906001600160a01b031681565b6001610182565b60006001600160e01b0319821663b075456560e01b14806102d657506001600160e01b031982166329c8a06d60e01b145b806102f157506001600160e01b03198216630441a3e760e41b145b8061030c57506301ffc9a760e01b6001600160e01b03198316145b92915050565b6001805461031f906115d7565b80601f016020809104026020016040519081016040528092919081815260200182805461034b906115d7565b80156103985780601f1061036d57610100808354040283529160200191610398565b820191906000526020600020905b81548152906001019060200180831161037b57829003601f168201915b505050505081565b60008181526020819052604090819020548151600180825281840190935260609281602001602082028036833701905050915080826000815181106103e7576103e7611611565b60200260200101818152505050919050565b6003546000906001600160a01b031661051e578560026104198282610d5b565b8560016104268282610daf565b6002546001600160a01b031663604e38ed8c8c60008161044857610448611611565b905060200201602081019061045d9190611536565b8d8d600181811061047057610470611611565b90506020020160208101906104859190611536565b338d8d600081811061049957610499611611565b90506020020135308d8d6040518863ffffffff1660e01b81526004016104c59796959493929190611650565b6020604051808303816000875af11580156104e4573d6000803e3d6000fd5b505050506040513d601f19601f8201168201806040525081019061050891906116a1565b9450610515858a8a610df7565b50505050610702565b600354604051631bf8659f60e21b815234916001600160a01b031690636fe1967c90610555903390600090369087906004016116ba565b600060405180830381600087803b15801561056f57600080fd5b505af1158015610583573d6000803e3d6000fd5b505050508787905060026105978282610d5b565b8660016105a48282610daf565b6002546001600160a01b031663604e38ed8d8d6000816105c6576105c6611611565b90506020020160208101906105db9190611536565b8e8e60018181106105ee576105ee611611565b90506020020160208101906106039190611536565b338e8e600081811061061757610617611611565b90506020020135308e8e6040518863ffffffff1660e01b81526004016106439796959493929190611650565b6020604051808303816000875af1158015610662573d6000803e3d6000fd5b505050506040513d601f19601f8201168201806040525081019061068691906116a1565b9550610693868b8b610df7565b50506003546040516393163a9160e01b81526001600160a01b0390911692506393163a9191506106ce903390600090369087906004016116ba565b600060405180830381600087803b1580156106e857600080fd5b505af11580156106fc573d6000803e3d6000fd5b50505050505b9695505050505050565b60035460009081906001600160a01b031661075257610729611002565b610748836107438560009081526020819052604090205490565b61106f565b9094909350915050565b600354604051631bf8659f60e21b815234916001600160a01b031690636fe1967c90610789903390600090369087906004016116ba565b600060405180830381600087803b1580156107a357600080fd5b505af11580156107b7573d6000803e3d6000fd5b505050506107c3611002565b6107dd846107438660009081526020819052604090205490565b6003546040516393163a9160e01b81529295509093506001600160a01b0316906393163a9190610818903390600090369087906004016116ba565b600060405180830381600087803b15801561083257600080fd5b505af1158015610846573d6000803e3d6000fd5b5050505050915091565b60035460009081906001600160a01b03166108815761086d61124a565b610877848461106f565b909250905061096b565b600354604051631bf8659f60e21b815234916001600160a01b031690636fe1967c906108b8903390600090369087906004016116ba565b600060405180830381600087803b1580156108d257600080fd5b505af11580156108e6573d6000803e3d6000fd5b505050506108f261124a565b6108fc858561106f565b6003546040516393163a9160e01b81529295509093506001600160a01b0316906393163a9190610937903390600090369087906004016116ba565b600060405180830381600087803b15801561095157600080fd5b505af1158015610965573d6000803e3d6000fd5b50505050505b9250929050565b6004546001600160a01b031633146109a55760405162461bcd60e51b815260040161099c906116f0565b60405180910390fd5b6001600160a01b0381166109fb5760405162461bcd60e51b815260206004820152601e60248201527f4669726577616c6c436f6e73756d65723a207a65726f20616464726573730000604482015260640161099c565b600480546001600160a01b0319166001600160a01b0392909216919091179055565b6004546001600160a01b03163314610a475760405162461bcd60e51b815260040161099c906116f0565b600380546001600160a01b0319166001600160a01b0392909216919091179055565b6003546001600160a01b0316610b0557610a8161124a565b600083815260208190526040812054610a9a9083611302565b600085815260208190526040902054909150811115610acb5760405162461bcd60e51b815260040161099c90611734565b60008481526020819052604081208054839290610ae9908490611793565b9091555050600092835260208390526040909220919091555050565b600354604051631bf8659f60e21b815234916001600160a01b031690636fe1967c90610b3c903390600090369087906004016116ba565b600060405180830381600087803b158015610b5657600080fd5b505af1158015610b6a573d6000803e3d6000fd5b50505050610b7661124a565b600084815260208190526040812054610b8f9084611302565b600086815260208190526040902054909150811115610bc05760405162461bcd60e51b815260040161099c90611734565b60008581526020819052604081208054839290610bde908490611793565b90915550506000848152602081905260408082209290925560035491516393163a9160e01b81526001600160a01b03909216916393163a9191610c2a91339190369087906004016116ba565b600060405180830381600087803b158015610c4457600080fd5b505af1158015610c58573d6000803e3d6000fd5b5050505050505050565b6003546001600160a01b0316610c9957610c7a61124a565b806001610c878282610daf565b610c92858585610df7565b5050505050565b600354604051631bf8659f60e21b815234916001600160a01b031690636fe1967c90610cd0903390600090369087906004016116ba565b600060405180830381600087803b158015610cea57600080fd5b505af1158015610cfe573d6000803e3d6000fd5b50505050610d0a61124a565b816001610d178282610daf565b610d22868686610df7565b50506003546040516393163a9160e01b81526001600160a01b03909116906393163a9190610c2a903390600090369087906004016116ba565b80821015610dab5760405162461bcd60e51b815260206004820152601860248201527f696e76616c696420616464726573736573206c656e6774680000000000000000604482015260640161099c565b5050565b80821015610dab5760405162461bcd60e51b81526020600482015260156024820152740d2dcecc2d8d2c840e0c2e4c2dae640d8cadccee8d605b1b604482015260640161099c565b60035463677df66b60e01b906001600160a01b0316610e7f5782826000818110610e2357610e23611611565b9050602002013560008086815260200190815260200160002081905550837f8a8d0156781437c66d28625f74e4d2f9d979f409f4eb3066b5986977323058af8484604051610e729291906117a6565b60405180910390a2610ffc565b600354604080516001600160e01b031984166020820152815160048183030181526024820192839052631bf8659f60e21b90925234926001600160a01b031691636fe1967c91610ed591339186906028016117df565b600060405180830381600087803b158015610eef57600080fd5b505af1158015610f03573d6000803e3d6000fd5b5050505083836000818110610f1a57610f1a611611565b9050602002013560008087815260200190815260200160002081905550847f8a8d0156781437c66d28625f74e4d2f9d979f409f4eb3066b5986977323058af8585604051610f699291906117a6565b60405180910390a2600354604080516001600160e01b0319851660208201528151600481830301815260248201928390526393163a9160e01b9092526001600160a01b03909216916393163a9191610fc89133919086906028016117df565b600060405180830381600087803b158015610fe257600080fd5b505af1158015610ff6573d6000803e3d6000fd5b50505050505b50505050565b6002546001600160a01b0316331461106d5760405162461bcd60e51b815260206004820152602860248201527f6f6e6c79204e465420636f6e74726163742063616e2063616c6c207468697320604482015267333ab731ba34b7b760c11b606482015260840161099c565b565b600354600090819063278afc8b60e21b906001600160a01b03166110e05760008581526020819052604090205484116110db57600085815260208190526040812080548692906110c0908490611793565b90915550506000858152602081905260409020548493501591505b611242565b600354604080516001600160e01b031984166020820152815160048183030181526024820192839052631bf8659f60e21b90925234926001600160a01b031691636fe1967c9161113691339186906028016117df565b600060405180830381600087803b15801561115057600080fd5b505af1158015611164573d6000803e3d6000fd5b505050600087815260208190526040902054861190506111b7576000868152602081905260408120805487929061119c908490611793565b90915550506000868152602081905260409020548594501592505b600354604080516001600160e01b0319851660208201528151600481830301815260248201928390526393163a9160e01b9092526001600160a01b03909216916393163a919161120e9133919086906028016117df565b600060405180830381600087803b15801561122857600080fd5b505af115801561123c573d6000803e3d6000fd5b50505050505b509250929050565b6002546040516326749ad760e01b81523360048201526001600160a01b03909116906326749ad790602401602060405180830381865afa158015611292573d6000803e3d6000fd5b505050506040513d601f19601f820116820180604052508101906112b69190611813565b61106d5760405162461bcd60e51b815260206004820152601860248201527f696e76616c69642070726f766964657220616464726573730000000000000000604482015260640161099c565b6000683635c9adc5dea000006113188385611835565b611322919061184c565b9392505050565b60006020828403121561133b57600080fd5b81356001600160e01b03198116811461132257600080fd5b6000815180845260005b818110156113795760208185018101518683018201520161135d565b506000602082860101526020601f19601f83011685010191505092915050565b6020815260006113226020830184611353565b6000602082840312156113be57600080fd5b5035919050565b6020808252825182820181905260009190848201906040850190845b818110156113fd578351835292840192918401916001016113e1565b50909695505050505050565b60008083601f84011261141b57600080fd5b50813567ffffffffffffffff81111561143357600080fd5b6020830191508360208260051b850101111561096b57600080fd5b6000806000806000806060878903121561146757600080fd5b863567ffffffffffffffff8082111561147f57600080fd5b61148b8a838b01611409565b909850965060208901359150808211156114a457600080fd5b6114b08a838b01611409565b909650945060408901359150808211156114c957600080fd5b818901915089601f8301126114dd57600080fd5b8135818111156114ec57600080fd5b8a60208285010111156114fe57600080fd5b6020830194508093505050509295509295509295565b6000806040838503121561152757600080fd5b50508035926020909101359150565b60006020828403121561154857600080fd5b81356001600160a01b038116811461132257600080fd5b60008060006060848603121561157457600080fd5b505081359360208301359350604090920135919050565b6000806000604084860312156115a057600080fd5b83359250602084013567ffffffffffffffff8111156115be57600080fd5b6115ca86828701611409565b9497909650939450505050565b600181811c908216806115eb57607f821691505b60208210810361160b57634e487b7160e01b600052602260045260246000fd5b50919050565b634e487b7160e01b600052603260045260246000fd5b81835281816020850137506000828201602090810191909152601f909101601f19169091010190565b6001600160a01b03888116825287811660208301528681166040830152606082018690528416608082015260c060a082018190526000906116949083018486611627565b9998505050505050505050565b6000602082840312156116b357600080fd5b5051919050565b6001600160a01b03851681526060602082018190526000906116df9083018587611627565b905082604083015295945050505050565b60208082526024908201527f4669726577616c6c436f6e73756d65723a206e6f74206669726577616c6c20616040820152633236b4b760e11b606082015260800190565b60208082526029908201527f53706c697420616d6f756e7420657863656564732074686520617661696c61626040820152681b1948185b5bdd5b9d60ba1b606082015260800190565b634e487b7160e01b600052601160045260246000fd5b8181038181111561030c5761030c61177d565b6020808252810182905260006001600160fb1b038311156117c657600080fd5b8260051b80856040850137919091016040019392505050565b6001600160a01b038416815260606020820181905260009061180390830185611353565b9050826040830152949350505050565b60006020828403121561182557600080fd5b8151801515811461132257600080fd5b808202811582820484141761030c5761030c61177d565b60008261186957634e487b7160e01b600052601260045260246000fd5b50049056fea264697066735822122026298b1f5b8181334e1700fa927262312d776c8b9993a785b36739b35c3dcbdb64736f6c63430008130033",
  "linkReferences": {},
  "deployedLinkReferences": {}
}