{
  "_format": "hh-sol-artifact-1",
  "contractName": "LockDealNFT",
  "sourceName": "contracts/LockDealNFT/LockDealNFT.sol",
  "abi": [
    {
      "inputs": [
        {
          "internalType": "address",
          "name": "_vaultManager",
          "type": "address"
        },
        {
          "internalType": "string",
          "name": "_baseURI",
          "type": "string"
        }
      ],
      "stateMutability": "nonpayable",
      "type": "constructor"
    },
    {
      "anonymous": false,
      "inputs": [
        {
          "indexed": true,
          "internalType": "address",
          "name": "owner",
          "type": "address"
        },
        {
          "indexed": true,
          "internalType": "address",
          "name": "approved",
          "type": "address"
        },
        {
          "indexed": true,
          "internalType": "uint256",
          "name": "tokenId",
          "type": "uint256"
        }
      ],
      "name": "Approval",
      "type": "event"
    },
    {
      "anonymous": false,
      "inputs": [
        {
          "indexed": true,
          "internalType": "address",
          "name": "owner",
          "type": "address"
        },
        {
          "indexed": true,
          "internalType": "address",
          "name": "operator",
          "type": "address"
        },
        {
          "indexed": false,
          "internalType": "bool",
          "name": "approved",
          "type": "bool"
        }
      ],
      "name": "ApprovalForAll",
      "type": "event"
    },
    {
      "anonymous": false,
      "inputs": [
        {
          "indexed": false,
          "internalType": "string",
          "name": "oldBaseURI",
          "type": "string"
        },
        {
          "indexed": false,
          "internalType": "string",
          "name": "newBaseURI",
          "type": "string"
        }
      ],
      "name": "BaseURIChanged",
      "type": "event"
    },
    {
      "anonymous": false,
      "inputs": [
        {
          "indexed": false,
          "internalType": "uint256",
          "name": "_fromTokenId",
          "type": "uint256"
        },
        {
          "indexed": false,
          "internalType": "uint256",
          "name": "_toTokenId",
          "type": "uint256"
        }
      ],
      "name": "BatchMetadataUpdate",
      "type": "event"
    },
    {
      "anonymous": false,
      "inputs": [
        {
          "indexed": true,
          "internalType": "address",
          "name": "contractAddress",
          "type": "address"
        },
        {
          "indexed": false,
          "internalType": "bool",
          "name": "status",
          "type": "bool"
        }
      ],
      "name": "ContractApproved",
      "type": "event"
    },
    {
      "anonymous": false,
      "inputs": [
        {
          "indexed": false,
          "internalType": "uint256",
          "name": "_tokenId",
          "type": "uint256"
        }
      ],
      "name": "MetadataUpdate",
      "type": "event"
    },
    {
      "anonymous": false,
      "inputs": [
        {
          "indexed": true,
          "internalType": "address",
          "name": "previousOwner",
          "type": "address"
        },
        {
          "indexed": true,
          "internalType": "address",
          "name": "newOwner",
          "type": "address"
        }
      ],
      "name": "OwnershipTransferred",
      "type": "event"
    },
    {
      "anonymous": false,
      "inputs": [
        {
          "indexed": false,
          "internalType": "uint256",
          "name": "poolId",
          "type": "uint256"
        },
        {
          "indexed": true,
          "internalType": "address",
          "name": "owner",
          "type": "address"
        },
        {
          "indexed": false,
          "internalType": "uint256",
          "name": "newPoolId",
          "type": "uint256"
        },
        {
          "indexed": true,
          "internalType": "address",
          "name": "newOwner",
          "type": "address"
        },
        {
          "indexed": false,
          "internalType": "uint256",
          "name": "splitLeftAmount",
          "type": "uint256"
        },
        {
          "indexed": false,
          "internalType": "uint256",
          "name": "newSplitLeftAmount",
          "type": "uint256"
        }
      ],
      "name": "PoolSplit",
      "type": "event"
    },
    {
      "anonymous": false,
      "inputs": [
        {
          "indexed": false,
          "internalType": "uint256",
          "name": "poolId",
          "type": "uint256"
        },
        {
          "indexed": true,
          "internalType": "address",
          "name": "owner",
          "type": "address"
        },
        {
          "indexed": false,
          "internalType": "uint256",
          "name": "withdrawnAmount",
          "type": "uint256"
        },
        {
          "indexed": false,
          "internalType": "uint256",
          "name": "leftAmount",
          "type": "uint256"
        }
      ],
      "name": "TokenWithdrawn",
      "type": "event"
    },
    {
      "anonymous": false,
      "inputs": [
        {
          "indexed": true,
          "internalType": "address",
          "name": "from",
          "type": "address"
        },
        {
          "indexed": true,
          "internalType": "address",
          "name": "to",
          "type": "address"
        },
        {
          "indexed": true,
          "internalType": "uint256",
          "name": "tokenId",
          "type": "uint256"
        }
      ],
      "name": "Transfer",
      "type": "event"
    },
    {
      "inputs": [
        {
          "internalType": "address",
          "name": "to",
          "type": "address"
        },
        {
          "internalType": "uint256",
          "name": "tokenId",
          "type": "uint256"
        }
      ],
      "name": "approve",
      "outputs": [],
      "stateMutability": "nonpayable",
      "type": "function"
    },
    {
      "inputs": [
        {
          "internalType": "bool",
          "name": "status",
          "type": "bool"
        }
      ],
      "name": "approvePoolTransfers",
      "outputs": [],
      "stateMutability": "nonpayable",
      "type": "function"
    },
    {
      "inputs": [
        {
          "internalType": "address",
          "name": "",
          "type": "address"
        }
      ],
      "name": "approvedContracts",
      "outputs": [
        {
          "internalType": "bool",
          "name": "",
          "type": "bool"
        }
      ],
      "stateMutability": "view",
      "type": "function"
    },
    {
      "inputs": [
        {
          "internalType": "address",
          "name": "",
          "type": "address"
        }
      ],
      "name": "approvedPoolUserTransfers",
      "outputs": [
        {
          "internalType": "bool",
          "name": "",
          "type": "bool"
        }
      ],
      "stateMutability": "view",
      "type": "function"
    },
    {
      "inputs": [
        {
          "internalType": "address",
          "name": "owner",
          "type": "address"
        },
        {
          "internalType": "address[]",
          "name": "tokens",
          "type": "address[]"
        }
      ],
      "name": "balanceOf",
      "outputs": [
        {
          "internalType": "uint256",
          "name": "balance",
          "type": "uint256"
        }
      ],
      "stateMutability": "view",
      "type": "function"
    },
    {
      "inputs": [
        {
          "internalType": "address",
          "name": "owner",
          "type": "address"
        }
      ],
      "name": "balanceOf",
      "outputs": [
        {
          "internalType": "uint256",
          "name": "",
          "type": "uint256"
        }
      ],
      "stateMutability": "view",
      "type": "function"
    },
    {
      "inputs": [],
      "name": "baseURI",
      "outputs": [
        {
          "internalType": "string",
          "name": "",
          "type": "string"
        }
      ],
      "stateMutability": "view",
      "type": "function"
    },
    {
      "inputs": [
        {
          "internalType": "uint256",
          "name": "destinationPoolId",
          "type": "uint256"
        },
        {
          "internalType": "uint256",
          "name": "sourcePoolId",
          "type": "uint256"
        }
      ],
      "name": "cloneVaultId",
      "outputs": [],
      "stateMutability": "nonpayable",
      "type": "function"
    },
    {
      "inputs": [],
      "name": "firewallAdmin",
      "outputs": [
        {
          "internalType": "address",
          "name": "",
          "type": "address"
        }
      ],
      "stateMutability": "view",
      "type": "function"
    },
    {
      "inputs": [
        {
          "internalType": "uint256",
          "name": "tokenId",
          "type": "uint256"
        }
      ],
      "name": "getApproved",
      "outputs": [
        {
          "internalType": "address",
          "name": "",
          "type": "address"
        }
      ],
      "stateMutability": "view",
      "type": "function"
    },
    {
      "inputs": [
        {
          "internalType": "uint256",
          "name": "poolId",
          "type": "uint256"
        }
      ],
      "name": "getData",
      "outputs": [
        {
          "components": [
            {
              "internalType": "contract IProvider",
              "name": "provider",
              "type": "address"
            },
            {
              "internalType": "string",
              "name": "name",
              "type": "string"
            },
            {
              "internalType": "uint256",
              "name": "poolId",
              "type": "uint256"
            },
            {
              "internalType": "uint256",
              "name": "vaultId",
              "type": "uint256"
            },
            {
              "internalType": "address",
              "name": "owner",
              "type": "address"
            },
            {
              "internalType": "address",
              "name": "token",
              "type": "address"
            },
            {
              "internalType": "uint256[]",
              "name": "params",
              "type": "uint256[]"
            }
          ],
          "internalType": "struct ILockDealNFT.BasePoolInfo",
          "name": "poolInfo",
          "type": "tuple"
        }
      ],
      "stateMutability": "view",
      "type": "function"
    },
    {
      "inputs": [
        {
          "internalType": "uint256",
          "name": "poolId",
          "type": "uint256"
        }
      ],
      "name": "getFullData",
      "outputs": [
        {
          "components": [
            {
              "internalType": "contract IProvider",
              "name": "provider",
              "type": "address"
            },
            {
              "internalType": "string",
              "name": "name",
              "type": "string"
            },
            {
              "internalType": "uint256",
              "name": "poolId",
              "type": "uint256"
            },
            {
              "internalType": "uint256",
              "name": "vaultId",
              "type": "uint256"
            },
            {
              "internalType": "address",
              "name": "owner",
              "type": "address"
            },
            {
              "internalType": "address",
              "name": "token",
              "type": "address"
            },
            {
              "internalType": "uint256[]",
              "name": "params",
              "type": "uint256[]"
            }
          ],
          "internalType": "struct ILockDealNFT.BasePoolInfo[]",
          "name": "poolInfo",
          "type": "tuple[]"
        }
      ],
      "stateMutability": "view",
      "type": "function"
    },
    {
      "inputs": [
        {
          "internalType": "address",
          "name": "user",
          "type": "address"
        },
        {
          "internalType": "address[]",
          "name": "tokens",
          "type": "address[]"
        },
        {
          "internalType": "uint256",
          "name": "from",
          "type": "uint256"
        },
        {
          "internalType": "uint256",
          "name": "to",
          "type": "uint256"
        }
      ],
      "name": "getUserDataByTokens",
      "outputs": [
        {
          "components": [
            {
              "internalType": "contract IProvider",
              "name": "provider",
              "type": "address"
            },
            {
              "internalType": "string",
              "name": "name",
              "type": "string"
            },
            {
              "internalType": "uint256",
              "name": "poolId",
              "type": "uint256"
            },
            {
              "internalType": "uint256",
              "name": "vaultId",
              "type": "uint256"
            },
            {
              "internalType": "address",
              "name": "owner",
              "type": "address"
            },
            {
              "internalType": "address",
              "name": "token",
              "type": "address"
            },
            {
              "internalType": "uint256[]",
              "name": "params",
              "type": "uint256[]"
            }
          ],
          "internalType": "struct ILockDealNFT.BasePoolInfo[]",
          "name": "userPoolInfo",
          "type": "tuple[]"
        }
      ],
      "stateMutability": "view",
      "type": "function"
    },
    {
      "inputs": [
        {
          "internalType": "uint256",
          "name": "poolId",
          "type": "uint256"
        }
      ],
      "name": "getWithdrawableAmount",
      "outputs": [
        {
          "internalType": "uint256",
          "name": "withdrawalAmount",
          "type": "uint256"
        }
      ],
      "stateMutability": "view",
      "type": "function"
    },
    {
      "inputs": [
        {
          "internalType": "address",
          "name": "owner",
          "type": "address"
        },
        {
          "internalType": "address",
          "name": "operator",
          "type": "address"
        }
      ],
      "name": "isApprovedForAll",
      "outputs": [
        {
          "internalType": "bool",
          "name": "",
          "type": "bool"
        }
      ],
      "stateMutability": "view",
      "type": "function"
    },
    {
      "inputs": [
        {
          "internalType": "address",
          "name": "owner",
          "type": "address"
        },
        {
          "internalType": "address",
          "name": "token",
          "type": "address"
        },
        {
          "internalType": "uint256",
          "name": "amount",
          "type": "uint256"
        },
        {
          "internalType": "contract IProvider",
          "name": "provider",
          "type": "address"
        }
      ],
      "name": "mintAndTransfer",
      "outputs": [
        {
          "internalType": "uint256",
          "name": "poolId",
          "type": "uint256"
        }
      ],
      "stateMutability": "nonpayable",
      "type": "function"
    },
    {
      "inputs": [
        {
          "internalType": "address",
          "name": "owner",
          "type": "address"
        },
        {
          "internalType": "contract IProvider",
          "name": "provider",
          "type": "address"
        }
      ],
      "name": "mintForProvider",
      "outputs": [
        {
          "internalType": "uint256",
          "name": "poolId",
          "type": "uint256"
        }
      ],
      "stateMutability": "nonpayable",
      "type": "function"
    },
    {
      "inputs": [],
      "name": "name",
      "outputs": [
        {
          "internalType": "string",
          "name": "",
          "type": "string"
        }
      ],
      "stateMutability": "view",
      "type": "function"
    },
    {
      "inputs": [
        {
          "internalType": "address",
          "name": "",
          "type": "address"
        },
        {
          "internalType": "address",
          "name": "from",
          "type": "address"
        },
        {
          "internalType": "uint256",
          "name": "poolId",
          "type": "uint256"
        },
        {
          "internalType": "bytes",
          "name": "data",
          "type": "bytes"
        }
      ],
      "name": "onERC721Received",
      "outputs": [
        {
          "internalType": "bytes4",
          "name": "",
          "type": "bytes4"
        }
      ],
      "stateMutability": "nonpayable",
      "type": "function"
    },
    {
      "inputs": [],
      "name": "owner",
      "outputs": [
        {
          "internalType": "address",
          "name": "",
          "type": "address"
        }
      ],
      "stateMutability": "view",
      "type": "function"
    },
    {
      "inputs": [
        {
          "internalType": "uint256",
          "name": "tokenId",
          "type": "uint256"
        }
      ],
      "name": "ownerOf",
      "outputs": [
        {
          "internalType": "address",
          "name": "",
          "type": "address"
        }
      ],
      "stateMutability": "view",
      "type": "function"
    },
    {
      "inputs": [
        {
          "internalType": "uint256",
          "name": "",
          "type": "uint256"
        }
      ],
      "name": "poolIdToProvider",
      "outputs": [
        {
          "internalType": "contract IProvider",
          "name": "",
          "type": "address"
        }
      ],
      "stateMutability": "view",
      "type": "function"
    },
    {
      "inputs": [
        {
          "internalType": "uint256",
          "name": "",
          "type": "uint256"
        }
      ],
      "name": "poolIdToVaultId",
      "outputs": [
        {
          "internalType": "uint256",
          "name": "",
          "type": "uint256"
        }
      ],
      "stateMutability": "view",
      "type": "function"
    },
    {
      "inputs": [],
      "name": "renounceOwnership",
      "outputs": [],
      "stateMutability": "nonpayable",
      "type": "function"
    },
    {
      "inputs": [
        {
          "internalType": "uint256",
          "name": "tokenId",
          "type": "uint256"
        },
        {
          "internalType": "uint256",
          "name": "salePrice",
          "type": "uint256"
        }
      ],
      "name": "royaltyInfo",
      "outputs": [
        {
          "internalType": "address",
          "name": "receiver",
          "type": "address"
        },
        {
          "internalType": "uint256",
          "name": "royaltyAmount",
          "type": "uint256"
        }
      ],
      "stateMutability": "view",
      "type": "function"
    },
    {
      "inputs": [
        {
          "internalType": "address",
          "name": "owner",
          "type": "address"
        },
        {
          "internalType": "address",
          "name": "token",
          "type": "address"
        },
        {
          "internalType": "address",
          "name": "from",
          "type": "address"
        },
        {
          "internalType": "uint256",
          "name": "amount",
          "type": "uint256"
        },
        {
          "internalType": "contract IProvider",
          "name": "provider",
          "type": "address"
        },
        {
          "internalType": "bytes",
          "name": "data",
          "type": "bytes"
        }
      ],
      "name": "safeMintAndTransfer",
      "outputs": [
        {
          "internalType": "uint256",
          "name": "poolId",
          "type": "uint256"
        }
      ],
      "stateMutability": "nonpayable",
      "type": "function"
    },
    {
      "inputs": [
        {
          "internalType": "address",
          "name": "from",
          "type": "address"
        },
        {
          "internalType": "address",
          "name": "to",
          "type": "address"
        },
        {
          "internalType": "uint256",
          "name": "tokenId",
          "type": "uint256"
        }
      ],
      "name": "safeTransferFrom",
      "outputs": [],
      "stateMutability": "nonpayable",
      "type": "function"
    },
    {
      "inputs": [
        {
          "internalType": "address",
          "name": "from",
          "type": "address"
        },
        {
          "internalType": "address",
          "name": "to",
          "type": "address"
        },
        {
          "internalType": "uint256",
          "name": "tokenId",
          "type": "uint256"
        },
        {
          "internalType": "bytes",
          "name": "data",
          "type": "bytes"
        }
      ],
      "name": "safeTransferFrom",
      "outputs": [],
      "stateMutability": "nonpayable",
      "type": "function"
    },
    {
      "inputs": [
        {
          "internalType": "address",
          "name": "operator",
          "type": "address"
        },
        {
          "internalType": "bool",
          "name": "approved",
          "type": "bool"
        }
      ],
      "name": "setApprovalForAll",
      "outputs": [],
      "stateMutability": "nonpayable",
      "type": "function"
    },
    {
      "inputs": [
        {
          "internalType": "address",
          "name": "contractAddress",
          "type": "address"
        },
        {
          "internalType": "bool",
          "name": "status",
          "type": "bool"
        }
      ],
      "name": "setApprovedContract",
      "outputs": [],
      "stateMutability": "nonpayable",
      "type": "function"
    },
    {
      "inputs": [
        {
          "internalType": "string",
          "name": "newBaseURI",
          "type": "string"
        }
      ],
      "name": "setBaseURI",
      "outputs": [],
      "stateMutability": "nonpayable",
      "type": "function"
    },
    {
      "inputs": [
        {
          "internalType": "address",
          "name": "_firewall",
          "type": "address"
        }
      ],
      "name": "setFirewall",
      "outputs": [],
      "stateMutability": "nonpayable",
      "type": "function"
    },
    {
      "inputs": [
        {
          "internalType": "address",
          "name": "_firewallAdmin",
          "type": "address"
        }
      ],
      "name": "setFirewallAdmin",
      "outputs": [],
      "stateMutability": "nonpayable",
      "type": "function"
    },
    {
      "inputs": [
        {
          "internalType": "bytes4",
          "name": "interfaceId",
          "type": "bytes4"
        }
      ],
      "name": "supportsInterface",
      "outputs": [
        {
          "internalType": "bool",
          "name": "",
          "type": "bool"
        }
      ],
      "stateMutability": "view",
      "type": "function"
    },
    {
      "inputs": [],
      "name": "symbol",
      "outputs": [
        {
          "internalType": "string",
          "name": "",
          "type": "string"
        }
      ],
      "stateMutability": "view",
      "type": "function"
    },
    {
      "inputs": [
        {
          "internalType": "uint256",
          "name": "index",
          "type": "uint256"
        }
      ],
      "name": "tokenByIndex",
      "outputs": [
        {
          "internalType": "uint256",
          "name": "",
          "type": "uint256"
        }
      ],
      "stateMutability": "view",
      "type": "function"
    },
    {
      "inputs": [
        {
          "internalType": "uint256",
          "name": "poolId",
          "type": "uint256"
        }
      ],
      "name": "tokenOf",
      "outputs": [
        {
          "internalType": "address",
          "name": "token",
          "type": "address"
        }
      ],
      "stateMutability": "view",
      "type": "function"
    },
    {
      "inputs": [
        {
          "internalType": "address",
          "name": "owner",
          "type": "address"
        },
        {
          "internalType": "uint256",
          "name": "index",
          "type": "uint256"
        }
      ],
      "name": "tokenOfOwnerByIndex",
      "outputs": [
        {
          "internalType": "uint256",
          "name": "",
          "type": "uint256"
        }
      ],
      "stateMutability": "view",
      "type": "function"
    },
    {
      "inputs": [
        {
          "internalType": "address",
          "name": "owner",
          "type": "address"
        },
        {
          "internalType": "address[]",
          "name": "tokens",
          "type": "address[]"
        },
        {
          "internalType": "uint256",
          "name": "index",
          "type": "uint256"
        }
      ],
      "name": "tokenOfOwnerByIndex",
      "outputs": [
        {
          "internalType": "uint256",
          "name": "poolId",
          "type": "uint256"
        }
      ],
      "stateMutability": "view",
      "type": "function"
    },
    {
      "inputs": [
        {
          "internalType": "uint256",
          "name": "tokenId",
          "type": "uint256"
        }
      ],
      "name": "tokenURI",
      "outputs": [
        {
          "internalType": "string",
          "name": "",
          "type": "string"
        }
      ],
      "stateMutability": "view",
      "type": "function"
    },
    {
      "inputs": [],
      "name": "totalSupply",
      "outputs": [
        {
          "internalType": "uint256",
          "name": "",
          "type": "uint256"
        }
      ],
      "stateMutability": "view",
      "type": "function"
    },
    {
      "inputs": [
        {
          "internalType": "address",
          "name": "from",
          "type": "address"
        },
        {
          "internalType": "address",
          "name": "to",
          "type": "address"
        },
        {
          "internalType": "uint256",
          "name": "tokenId",
          "type": "uint256"
        }
      ],
      "name": "transferFrom",
      "outputs": [],
      "stateMutability": "nonpayable",
      "type": "function"
    },
    {
      "inputs": [
        {
          "internalType": "address",
          "name": "newOwner",
          "type": "address"
        }
      ],
      "name": "transferOwnership",
      "outputs": [],
      "stateMutability": "nonpayable",
      "type": "function"
    },
    {
      "inputs": [],
      "name": "updateAllMetadata",
      "outputs": [],
      "stateMutability": "nonpayable",
      "type": "function"
    },
    {
      "inputs": [],
      "name": "vaultManager",
      "outputs": [
        {
          "internalType": "contract IVaultManager",
          "name": "",
          "type": "address"
        }
      ],
      "stateMutability": "view",
      "type": "function"
    }
  ],
  "bytecode": "0x60806040523480156200001157600080fd5b5060405162005d3538038062005d35833981016040819052620000349162000203565b6000336040518060400160405280600b81526020016a131bd8dad119585b13919560aa1b81525060405180604001604052806005815260200164131113919560da1b81525081600090816200008a919062000388565b50600162000099828262000388565b505050620000b6620000b06200013960201b60201c565b6200013d565b601180546001600160a01b039384166001600160a01b03199182161790915560128054929093169116179055620000ed826200018f565b600c80546001600160a01b0319166001600160a01b038416179055306000908152601060205260409020805460ff19166001179055600b62000130828262000388565b50505062000454565b3390565b600a80546001600160a01b038381166001600160a01b0319831681179093556040519116919082907f8be0079c531659141344cd1fd0a4f28419497f9722a3daafe3b4186f6b6457e090600090a35050565b6001600160a01b038116620001ea5760405162461bcd60e51b815260206004820152601b60248201527f5a65726f2041646472657373206973206e6f7420616c6c6f7765640000000000604482015260640160405180910390fd5b50565b634e487b7160e01b600052604160045260246000fd5b600080604083850312156200021757600080fd5b82516001600160a01b03811681146200022f57600080fd5b602084810151919350906001600160401b03808211156200024f57600080fd5b818601915086601f8301126200026457600080fd5b815181811115620002795762000279620001ed565b604051601f8201601f19908116603f01168101908382118183101715620002a457620002a4620001ed565b816040528281528986848701011115620002bd57600080fd5b600093505b82841015620002e15784840186015181850187015292850192620002c2565b60008684830101528096505050505050509250929050565b600181811c908216806200030e57607f821691505b6020821081036200032f57634e487b7160e01b600052602260045260246000fd5b50919050565b601f8211156200038357600081815260208120601f850160051c810160208610156200035e5750805b601f850160051c820191505b818110156200037f578281556001016200036a565b5050505b505050565b81516001600160401b03811115620003a457620003a4620001ed565b620003bc81620003b58454620002f9565b8462000335565b602080601f831160018114620003f45760008415620003db5750858301515b600019600386901b1c1916600185901b1785556200037f565b600085815260208120601f198616915b82811015620004255788860151825594840194600190910190840162000404565b5085821015620004445787850151600019600388901b60f8161c191681555b5050505050600190811b01905550565b6158d180620004646000396000f3fe608060405234801561001057600080fd5b506004361061027f5760003560e01c80636352211e1161015c5780639bd51bfd116100ce578063c87b56dd11610087578063c87b56dd14610604578063e985e9c514610617578063ea78803f14610653578063f05c858214610666578063f2fde38b14610679578063fde914b41461068c57600080fd5b80639bd51bfd14610585578063a22cb465146105a5578063afa7688d146105b8578063b27abb06146105cb578063b88d4fde146105de578063bfbed350146105f157600080fd5b8063734b719811610120578063734b719814610520578063875f4384146105335780638a4adf24146105465780638c36d02d146105595780638da5cb5b1461056c57806395d89b411461057d57600080fd5b80636352211e146104c157806366557938146104d45780636c0360eb146104fd57806370a0823114610505578063715018a61461051857600080fd5b80632f745c59116101f55780634e17f297116101b95780634e17f2971461043f5780634f6ccce71461046257806355f804b3146104755780635c2bd9de146104885780635ffd993b1461049b578063604e38ed146104ae57600080fd5b80632f745c59146103de57806338c52df0146103f157806340a4376e146103f957806342842e0e146104195780634aa3ab931461042c57600080fd5b8063150b7a0211610247578063150b7a021461032557806318160ddd1461035157806323b872dd1461036357806326749ad71461037657806327608c36146103995780632a55205a146103ac57600080fd5b80630178fe3f1461028457806301ffc9a7146102ad57806306fdde03146102d0578063081812fc146102e5578063095ea7b314610310575b600080fd5b6102976102923660046149cc565b61069f565b6040516102a49190614ada565b60405180910390f35b6102c06102bb366004614b03565b6106c6565b60405190151581526020016102a4565b6102d8610706565b6040516102a49190614b20565b6102f86102f33660046149cc565b610798565b6040516001600160a01b0390911681526020016102a4565b61032361031e366004614b48565b6107bf565b005b610338610333366004614bbc565b6108d9565b6040516001600160e01b031990911681526020016102a4565b6008545b6040519081526020016102a4565b610323610371366004614c2e565b610ab4565b6102c0610384366004614c6f565b60106020526000908152604090205460ff1681565b6103556103a7366004614c8c565b610b3f565b6103bf6103ba366004614cdf565b610ed3565b604080516001600160a01b0390931683526020830191909152016102a4565b6103556103ec366004614b48565b610f65565b610323610ffe565b61040c610407366004614d45565b61102b565b6040516102a49190614dab565b610323610427366004614c2e565b6111a2565b61035561043a366004614e0d565b6111bd565b6102c061044d366004614c6f565b600f6020526000908152604090205460ff1681565b6103556104703660046149cc565b61124b565b610323610483366004614f0c565b6112de565b610355610496366004614f54565b61145e565b6103236104a9366004614fbd565b611576565b6103556104bc366004614ff6565b6115e8565b6102f86104cf3660046149cc565b6118a7565b6102f86104e23660046149cc565b600d602052600090815260409020546001600160a01b031681565b6102d8611907565b610355610513366004614c6f565b611995565b610323611a1b565b61032361052e366004614c6f565b611a2f565b6103556105413660046149cc565b611ad1565b600c546102f8906001600160a01b031681565b610323610567366004614c6f565b611b5b565b600a546001600160a01b03166102f8565b6102d8611ba7565b6103556105933660046149cc565b600e6020526000908152604090205481565b6103236105b3366004614fbd565b611bb6565b6103236105c636600461508d565b611bc5565b61040c6105d93660046149cc565b611c4c565b6103236105ec3660046150aa565b611dd5565b6103556105ff366004615129565b611e53565b6102d86106123660046149cc565b611fb9565b6102c0610625366004615129565b6001600160a01b03918216600090815260056020908152604080832093909416825291909152205460ff1690565b6102f86106613660046149cc565b612020565b6012546102f8906001600160a01b031681565b610323610687366004614c6f565b6120a2565b61032361069a366004614cdf565b61211b565b6106a7614974565b6106b0826122a1565b156106c1576106be826122be565b90505b919050565b60006001600160e01b0319821663152a902d60e11b14806106f757506001600160e01b0319821663089be4bb60e11b145b806106be57506106be82612420565b60606000805461071590615157565b80601f016020809104026020016040519081016040528092919081815260200182805461074190615157565b801561078e5780601f106107635761010080835404028352916020019161078e565b820191906000526020600020905b81548152906001019060200180831161077157829003601f168201915b5050505050905090565b60006107a382612445565b506000908152600460205260409020546001600160a01b031690565b60006107ca826118a7565b9050806001600160a01b0316836001600160a01b03160361083c5760405162461bcd60e51b815260206004820152602160248201527f4552433732313a20617070726f76616c20746f2063757272656e74206f776e656044820152603960f91b60648201526084015b60405180910390fd5b336001600160a01b038216148061085857506108588133610625565b6108ca5760405162461bcd60e51b815260206004820152603d60248201527f4552433732313a20617070726f76652063616c6c6572206973206e6f7420746f60448201527f6b656e206f776e6572206f7220617070726f76656420666f7220616c6c0000006064820152608401610833565b6108d48383612495565b505050565b6011546000906001600160a01b0316610965573330146109325760405162461bcd60e51b81526020600482015260146024820152731a5b9d985b1a59081b999d0818dbdb9d1c9858dd60621b6044820152606401610833565b61095784868461094b576109468888612503565b612b64565b610946878988886129e5565b50630a85bd0160e11b610aab565b601154604051631bf8659f60e21b815234916001600160a01b031690636fe1967c9061099c903390600090369087906004016151ba565b600060405180830381600087803b1580156109b657600080fd5b505af11580156109ca573d6000803e3d6000fd5b50503330149150610a1690505760405162461bcd60e51b81526020600482015260146024820152731a5b9d985b1a59081b999d0818dbdb9d1c9858dd60621b6044820152606401610833565b610a36858785610a2a576109468989612503565b610946888a89896129e5565b630a85bd0160e11b91506011546040516393163a9160e01b81526001600160a01b03909116906393163a9190610a77903390600090369087906004016151ba565b600060405180830381600087803b158015610a9157600080fd5b505af1158015610aa5573d6000803e3d6000fd5b50505050505b95945050505050565b610abe3382612cb9565b610b245760405162461bcd60e51b815260206004820152603160248201527f4552433732313a207472616e736665722063616c6c6572206973206e6f74206f6044820152701ddb995c881b9bdc88185c1c1c9bdd9959607a1b6064820152608401610833565b6108d483838360405180602001604052806000815250612d37565b6011546000906001600160a01b0316610ca75781610b5c81612d6a565b6001600160a01b0381163314610b7557610b7533612d6a565b85610b7f81612dca565b85610b8981612dca565b85610b9381612e20565b610b9d8987612e70565b600c5460405163095ea7b360e01b81526001600160a01b039182166004820152602481018a905291965089169063095ea7b3906044016020604051808303816000875af1158015610bf2573d6000803e3d6000fd5b505050506040513d601f19601f82011682018060405250810190610c1691906151f0565b50600c546040516305a131fb60e41b81526001600160a01b038a81166004830152602482018a905290911690635a131fb0906044016020604051808303816000875af1158015610c6a573d6000803e3d6000fd5b505050506040513d601f19601f82011682018060405250810190610c8e919061520d565b6000868152600e602052604090205550610ecb92505050565b601154604051631bf8659f60e21b815234916001600160a01b031690636fe1967c90610cde903390600090369087906004016151ba565b600060405180830381600087803b158015610cf857600080fd5b505af1158015610d0c573d6000803e3d6000fd5b5050505082610d1a81612d6a565b6001600160a01b0381163314610d3357610d3333612d6a565b86610d3d81612dca565b86610d4781612dca565b86610d5181612e20565b610d5b8a88612e70565b600c5460405163095ea7b360e01b81526001600160a01b039182166004820152602481018b90529197508a169063095ea7b3906044016020604051808303816000875af1158015610db0573d6000803e3d6000fd5b505050506040513d601f19601f82011682018060405250810190610dd491906151f0565b50600c546040516305a131fb60e41b81526001600160a01b038b81166004830152602482018b905290911690635a131fb0906044016020604051808303816000875af1158015610e28573d6000803e3d6000fd5b505050506040513d601f19601f82011682018060405250810190610e4c919061520d565b6000878152600e60205260408082209290925560115491516393163a9160e01b81526001600160a01b0390921695506393163a919450610e97935033925090369087906004016151ba565b600060405180830381600087803b158015610eb157600080fd5b505af1158015610ec5573d6000803e3d6000fd5b50505050505b949350505050565b600c546000838152600e602052604080822054905163152a902d60e11b8152600481019190915260248101849052909182916001600160a01b0390911690632a55205a906044016040805180830381865afa158015610f36573d6000803e3d6000fd5b505050506040513d601f19601f82011682018060405250810190610f5a9190615226565b909590945092505050565b6000610f7083611995565b8210610fd25760405162461bcd60e51b815260206004820152602b60248201527f455243373231456e756d657261626c653a206f776e657220696e646578206f7560448201526a74206f6620626f756e647360a81b6064820152608401610833565b506001600160a01b03821660009081526006602090815260408083208484529091529020545b92915050565b611006612fb0565b604051600019815260008051602061587c8339815191529060200160405180910390a1565b60608183111561106d5760405162461bcd60e51b815260206004820152600d60248201526c496e76616c69642072616e676560981b6044820152606401610833565b6110788686866111bd565b82106110d15760405162461bcd60e51b815260206004820152602260248201527f52616e67652067726561746572207468616e207573657220706f6f6c20636f756044820152611b9d60f21b6064820152608401610833565b6110db838361526a565b6110e690600161527d565b6001600160401b038111156110fd576110fd614e61565b60405190808252806020026020018201604052801561113657816020015b611123614974565b81526020019060019003908161111b5790505b5090506000835b8381116111975760006111528989898561145e565b905061115d8161069f565b848461116881615290565b95508151811061117a5761117a6152a9565b6020026020010181905250508061119090615290565b905061113d565b505095945050505050565b6108d483838360405180602001604052806000815250611dd5565b6000806111c985611995565b905060005b818110156112425761122185858080602002602001604051908101604052809392919081815260200183836020028082843760009201919091525061121c925061066191508a905085610f65565b61300a565b156112325761122f83615290565b92505b61123b81615290565b90506111ce565b50509392505050565b600061125660085490565b82106112b95760405162461bcd60e51b815260206004820152602c60248201527f455243373231456e756d657261626c653a20676c6f62616c20696e646578206f60448201526b7574206f6620626f756e647360a01b6064820152608401610833565b600882815481106112cc576112cc6152a9565b90600052602060002001549050919050565b6112e6612fb0565b806040516020016112f791906152bf565b60405160208183030381529060405280519060200120600b60405160200161131f91906152db565b60405160208183030381529060405280519060200120036113825760405162461bcd60e51b815260206004820152601a60248201527f63616e277420736574207468652073616d6520626173655552490000000000006044820152606401610833565b6000600b805461139190615157565b80601f01602080910402602001604051908101604052809291908181526020018280546113bd90615157565b801561140a5780601f106113df5761010080835404028352916020019161140a565b820191906000526020600020905b8154815290600101906020018083116113ed57829003601f168201915b5050505050905081600b9081611420919061539f565b507fc41b7cb64e5be01af4afc2641afc861432136270f4206b7773f229b658b96699818360405161145292919061545e565b60405180910390a15050565b60008061146c8686866111bd565b90508083106114cf5760405162461bcd60e51b815260206004820152602960248201527f696e76616c696420706f6f6c496420696e64657820627920746f6b656e20617360448201526839b7b1b4b0ba34b7b760b91b6064820152608401610833565b60006114da87611995565b90506000805b8281101561156a576114f28982610f65565b945061153688888080602002602001604051908101604052809392919081815260200183836020028082843760009201919091525061121c92508991506120209050565b801561154c5750858261154881615290565b9350145b1561155a5750505050610ecb565b61156381615290565b90506114e0565b50505050949350505050565b61157e612fb0565b816115888161306d565b6001600160a01b038316600081815260106020908152604091829020805460ff191686151590811790915591519182527f2f5b19bb75097659707b1df69ba629ec7e5acfe3f775e362b8750d854037de02910160405180910390a2505050565b6011546000906001600160a01b03166116db578361160581612d6a565b6001600160a01b038116331461161e5761161e33612d6a565b8861162881612dca565b8861163281612dca565b8761163c81612e20565b6116468c89612e70565b600c5460405163050bdc6760e31b81529196506001600160a01b03169063285ee3389061167f908e908d908f908d908d90600401615483565b6020604051808303816000875af115801561169e573d6000803e3d6000fd5b505050506040513d601f19601f820116820180604052508101906116c2919061520d565b6000868152600e60205260409020555061189c92505050565b601154604051631bf8659f60e21b815234916001600160a01b031690636fe1967c90611712903390600090369087906004016151ba565b600060405180830381600087803b15801561172c57600080fd5b505af1158015611740573d6000803e3d6000fd5b505050508461174e81612d6a565b6001600160a01b03811633146117675761176733612d6a565b8961177181612dca565b8961177b81612dca565b8861178581612e20565b61178f8d8a612e70565b9550600c60009054906101000a90046001600160a01b03166001600160a01b031663285ee3388d8c8e8c8c6040518663ffffffff1660e01b81526004016117da959493929190615483565b6020604051808303816000875af11580156117f9573d6000803e3d6000fd5b505050506040513d601f19601f8201168201806040525081019061181d919061520d565b6000878152600e60205260408082209290925560115491516393163a9160e01b81526001600160a01b0390921695506393163a919450611868935033925090369087906004016151ba565b600060405180830381600087803b15801561188257600080fd5b505af1158015611896573d6000803e3d6000fd5b50505050505b979650505050505050565b6000818152600260205260408120546001600160a01b031680610ff85760405162461bcd60e51b8152602060048201526018602482015277115490cdcc8c4e881a5b9d985b1a59081d1bdad95b88125160421b6044820152606401610833565b600b805461191490615157565b80601f016020809104026020016040519081016040528092919081815260200182805461194090615157565b801561198d5780601f106119625761010080835404028352916020019161198d565b820191906000526020600020905b81548152906001019060200180831161197057829003601f168201915b505050505081565b60006001600160a01b0382166119ff5760405162461bcd60e51b815260206004820152602960248201527f4552433732313a2061646472657373207a65726f206973206e6f7420612076616044820152683634b21037bbb732b960b91b6064820152608401610833565b506001600160a01b031660009081526003602052604090205490565b611a23612fb0565b611a2d60006130c4565b565b6012546001600160a01b03163314611a595760405162461bcd60e51b8152600401610833906154b7565b6001600160a01b038116611aaf5760405162461bcd60e51b815260206004820152601e60248201527f4669726577616c6c436f6e73756d65723a207a65726f206164647265737300006044820152606401610833565b601280546001600160a01b0319166001600160a01b0392909216919091179055565b6000611adc826122a1565b156106c1576000828152600d6020526040908190205490516321d7d0e160e21b8152600481018490526001600160a01b039091169063875f438490602401602060405180830381865afa158015611b37573d6000803e3d6000fd5b505050506040513d601f19601f820116820180604052508101906106be919061520d565b6012546001600160a01b03163314611b855760405162461bcd60e51b8152600401610833906154b7565b601180546001600160a01b0319166001600160a01b0392909216919091179055565b60606001805461071590615157565b611bc1338383613116565b5050565b336000908152600f602052604090205481151560ff909116151503611c2c5760405162461bcd60e51b815260206004820152601c60248201527f737461747573206973207468652073616d65206173206265666f7265000000006044820152606401610833565b336000908152600f60205260409020805460ff1916911515919091179055565b6060611c57826122a1565b156106c1576000828152600d602052604080822054905163d1438c3f60e01b8152600481018590526001600160a01b039091169063d1438c3f90602401600060405180830381865afa158015611cb1573d6000803e3d6000fd5b505050506040513d6000823e601f3d908101601f19168201604052611cd991908101906154fb565b9050600081516001611ceb919061527d565b9050806001600160401b03811115611d0557611d05614e61565b604051908082528060200260200182016040528015611d3e57816020015b611d2b614974565b815260200190600190039081611d235790505b509250611d4a846122be565b83600081518110611d5d57611d5d6152a9565b602090810291909101015260015b81811015611dcd57611d9f83611d8260018461526a565b81518110611d9257611d926152a9565b60200260200101516122be565b848281518110611db157611db16152a9565b602002602001018190525080611dc690615290565b9050611d6b565b505050919050565b611ddf3383612cb9565b611e415760405162461bcd60e51b815260206004820152602d60248201527f4552433732313a2063616c6c6572206973206e6f7420746f6b656e206f776e6560448201526c1c881bdc88185c1c1c9bdd9959609a1b6064820152608401610833565b611e4d84848484612d37565b50505050565b6011546000906001600160a01b0316611ea65781611e7081612d6a565b6001600160a01b0381163314611e8957611e8933612d6a565b83611e9381612dca565b611e9d8585612e70565b92505050610ff8565b601154604051631bf8659f60e21b815234916001600160a01b031690636fe1967c90611edd903390600090369087906004016151ba565b600060405180830381600087803b158015611ef757600080fd5b505af1158015611f0b573d6000803e3d6000fd5b5050505082611f1981612d6a565b6001600160a01b0381163314611f3257611f3233612d6a565b84611f3c81612dca565b611f468686612e70565b6011546040516393163a9160e01b81529195506001600160a01b031692506393163a919150611f80903390600090369087906004016151ba565b600060405180830381600087803b158015611f9a57600080fd5b505af1158015611fae573d6000803e3d6000fd5b505050505092915050565b6060611fc482612445565b6000611fce6131e4565b90506000815111611fee5760405180602001604052806000815250612019565b80611ff8846131f3565b6040516020016120099291906155a0565b6040516020818303038152906040525b9392505050565b600c546000828152600e6020526040808220549051633378358b60e01b815291926001600160a01b031691633378358b916120619160040190815260200190565b602060405180830381865afa15801561207e573d6000803e3d6000fd5b505050506040513d601f19601f820116820180604052508101906106be91906155cf565b6120aa612fb0565b6001600160a01b03811661210f5760405162461bcd60e51b815260206004820152602660248201527f4f776e61626c653a206e6577206f776e657220697320746865207a65726f206160448201526564647265737360d01b6064820152608401610833565b612118816130c4565b50565b6011546001600160a01b031661217d573361213581612d6a565b6001600160a01b038116331461214e5761214e33612d6a565b8261215881613285565b8261216281613285565b5050506000908152600e602052604080822054928252902055565b601154604051631bf8659f60e21b815234916001600160a01b031690636fe1967c906121b4903390600090369087906004016151ba565b600060405180830381600087803b1580156121ce57600080fd5b505af11580156121e2573d6000803e3d6000fd5b50505050336121f081612d6a565b6001600160a01b03811633146122095761220933612d6a565b8361221381613285565b8361221d81613285565b5050506000828152600e6020526040808220548583528183205560115490516393163a9160e01b81526001600160a01b03909116916393163a919161226a913391369087906004016151ba565b600060405180830381600087803b15801561228457600080fd5b505af1158015612298573d6000803e3d6000fd5b50505050505050565b6000908152600260205260409020546001600160a01b0316151590565b6122c6614974565b6000828152600d6020908152604080832054815160e0810183526001600160a01b0390911680825282516306fdde0360e01b815292519094919384019285926306fdde03926004808401938290030181865afa15801561232a573d6000803e3d6000fd5b505050506040513d6000823e601f3d908101601f1916820160405261235291908101906155ec565b8152602001848152602001600e600086815260200190815260200160002054815260200161237f856118a7565b6001600160a01b0316815260200161239685612020565b6001600160a01b03168152602001826001600160a01b03166308a4f072866040518263ffffffff1660e01b81526004016123d291815260200190565b600060405180830381865afa1580156123ef573d6000803e3d6000fd5b505050506040513d6000823e601f3d908101601f1916820160405261241791908101906154fb565b90529392505050565b60006001600160e01b0319821663780e9d6360e01b14806106be57506106be826132d0565b61244e816122a1565b6121185760405162461bcd60e51b8152602060048201526018602482015277115490cdcc8c4e881a5b9d985b1a59081d1bdad95b88125160421b6044820152606401610833565b600081815260046020526040902080546001600160a01b0319166001600160a01b03841690811790915581906124ca826118a7565b6001600160a01b03167f8c5be1e5ebec7d5bd14f71427d1e84f3dd0314c0f7b2291e5b200ac8c7c3b92560405160405180910390a45050565b60115460009063b790a77b60e01b906001600160a01b03166126f8576000838152600d6020526040808220549051632e1a7d4d60e01b8152600481018690526001600160a01b03909116908190632e1a7d4d9060240160408051808303816000875af1158015612577573d6000803e3d6000fd5b505050506040513d601f19601f8201168201806040525081019061259b9190615659565b945091506125b0816326f2a43f60e01b613320565b156126e6576040516326f2a43f60e01b8152600481018690526000925082906001600160a01b038316906326f2a43f906024016000604051808303816000875af1158015612602573d6000803e3d6000fd5b505050506040513d6000823e601f3d908101601f1916820160405261262a91908101906154fb565b905060005b81518110156126e357600082828151811061264c5761264c6152a9565b60209081029190910181015160008a8152600d9092526040909120549091506001600160a01b031661267d826118a7565b6001600160a01b0316146126c65760405162461bcd60e51b815260206004820152601060248201526f1a5b9d985b1a59081a5b9b995c881a5960821b6044820152606401610833565b6126d08982612503565b5050806126dc90615290565b905061262f565b50505b6126f185838861333c565b50506129de565b60115460405134916001600160a01b031690636fe1967c90339061272090869060200161567e565b604051602081830303815290604052846040518463ffffffff1660e01b815260040161274e93929190615693565b600060405180830381600087803b15801561276857600080fd5b505af115801561277c573d6000803e3d6000fd5b5050506000858152600d6020526040808220549051632e1a7d4d60e01b8152600481018890529192506001600160a01b0316908190632e1a7d4d9060240160408051808303816000875af11580156127d8573d6000803e3d6000fd5b505050506040513d601f19601f820116820180604052508101906127fc9190615659565b95509150612811816326f2a43f60e01b613320565b15612947576040516326f2a43f60e01b8152600481018790526000925082906001600160a01b038316906326f2a43f906024016000604051808303816000875af1158015612863573d6000803e3d6000fd5b505050506040513d6000823e601f3d908101601f1916820160405261288b91908101906154fb565b905060005b81518110156129445760008282815181106128ad576128ad6152a9565b60209081029190910181015160008b8152600d9092526040909120549091506001600160a01b03166128de826118a7565b6001600160a01b0316146129275760405162461bcd60e51b815260206004820152601060248201526f1a5b9d985b1a59081a5b9b995c881a5960821b6044820152606401610833565b6129318a82612503565b50508061293d90615290565b9050612890565b50505b61295286838961333c565b50506011546040516001600160a01b03909116906393163a9190339061297c90869060200161567e565b604051602081830303815290604052846040518463ffffffff1660e01b81526004016129aa93929190615693565b600060405180830381600087803b1580156129c457600080fd5b505af11580156129d8573d6000803e3d6000fd5b50505050505b5092915050565b601154600090630ba35c4960e11b906001600160a01b0316612a2857600080612a0f86868961365b565b91509150612a1f88888484613691565b93505050612b5b565b60115460405134916001600160a01b031690636fe1967c903390612a5090869060200161567e565b604051602081830303815290604052846040518463ffffffff1660e01b8152600401612a7e93929190615693565b600060405180830381600087803b158015612a9857600080fd5b505af1158015612aac573d6000803e3d6000fd5b50505050600080612abe87878a61365b565b91509150612ace89898484613691565b6011546040519196506001600160a01b031692506393163a9191503390612af990869060200161567e565b604051602081830303815290604052846040518463ffffffff1660e01b8152600401612b2793929190615693565b600060405180830381600087803b158015612b4157600080fd5b505af1158015612b55573d6000803e3d6000fd5b50505050505b50949350505050565b601154631d50d0db60e01b906001600160a01b0316612b925781612b8d57612b8d308486613c8c565b611e4d565b60115460405134916001600160a01b031690636fe1967c903390612bba90869060200161567e565b604051602081830303815290604052846040518463ffffffff1660e01b8152600401612be893929190615693565b600060405180830381600087803b158015612c0257600080fd5b505af1158015612c16573d6000803e3d6000fd5b5050505082612c2a57612c2a308587613c8c565b6011546040516001600160a01b03909116906393163a91903390612c5290869060200161567e565b604051602081830303815290604052846040518463ffffffff1660e01b8152600401612c8093929190615693565b600060405180830381600087803b158015612c9a57600080fd5b505af1158015612cae573d6000803e3d6000fd5b505050505050505050565b600080612cc5836118a7565b9050806001600160a01b0316846001600160a01b03161480612d0c57506001600160a01b0380821660009081526005602090815260408083209388168352929052205460ff165b80610ecb5750836001600160a01b0316612d2584610798565b6001600160a01b031614949350505050565b612d42848484613c8c565b612d4e848484846140e9565b611e4d5760405162461bcd60e51b8152600401610833906156c7565b6001600160a01b03811660009081526010602052604090205460ff166121185760405162461bcd60e51b815260206004820152601560248201527410dbdb9d1c9858dd081b9bdd08185c1c1c9bdd9959605a1b6044820152606401610833565b6001600160a01b0381166121185760405162461bcd60e51b815260206004820152601b60248201527f5a65726f2041646472657373206973206e6f7420616c6c6f77656400000000006044820152606401610833565b600081116121185760405162461bcd60e51b815260206004820152601d60248201527f616d6f756e74206d7573742062652067726561746572207468616e20300000006044820152606401610833565b601154600090630f266b9160e21b906001600160a01b0316612ec7576008549150612e9b84836141e7565b6000828152600d6020526040902080546001600160a01b0319166001600160a01b0385161790556129de565b60115460405134916001600160a01b031690636fe1967c903390612eef90869060200161567e565b604051602081830303815290604052846040518463ffffffff1660e01b8152600401612f1d93929190615693565b600060405180830381600087803b158015612f3757600080fd5b505af1158015612f4b573d6000803e3d6000fd5b50505050612f5860085490565b9250612f6485846141e7565b6000838152600d602090815260409182902080546001600160a01b0319166001600160a01b038881169190911790915560115492519216916393163a9191339161297c9187910161567e565b600a546001600160a01b03163314611a2d5760405162461bcd60e51b815260206004820181905260248201527f4f776e61626c653a2063616c6c6572206973206e6f7420746865206f776e65726044820152606401610833565b6000805b835181101561306357826001600160a01b0316848281518110613033576130336152a9565b60200260200101516001600160a01b031603613053576001915050610ff8565b61305c81615290565b905061300e565b5060009392505050565b6001600160a01b0381163b6121185760405162461bcd60e51b815260206004820152601860248201527f496e76616c696420636f6e7472616374206164647265737300000000000000006044820152606401610833565b600a80546001600160a01b038381166001600160a01b0319831681179093556040519116919082907f8be0079c531659141344cd1fd0a4f28419497f9722a3daafe3b4186f6b6457e090600090a35050565b816001600160a01b0316836001600160a01b0316036131775760405162461bcd60e51b815260206004820152601960248201527f4552433732313a20617070726f766520746f2063616c6c6572000000000000006044820152606401610833565b6001600160a01b03838116600081815260056020908152604080832094871680845294825291829020805460ff191686151590811790915591519182527f17307eab39ab6107e8899845ad3d59bd9653f200f220920489ca2b5937696c31910160405180910390a3505050565b6060600b805461071590615157565b6060600061320083614201565b60010190506000816001600160401b0381111561321f5761321f614e61565b6040519080825280601f01601f191660200182016040528015613249576020820181803683370190505b5090508181016020015b600019016f181899199a1a9b1b9c1cb0b131b232b360811b600a86061a8153600a850494508461325357509392505050565b61328e816122a1565b6121185760405162461bcd60e51b8152602060048201526013602482015272141bdbdb08191bd95cc81b9bdd08195e1a5cdd606a1b6044820152606401610833565b60006001600160e01b031982166380ac58cd60e01b148061330157506001600160e01b03198216635b5e139f60e01b145b806106be57506301ffc9a760e01b6001600160e01b03198316146106be565b600061332b836142d9565b80156120195750612019838361430c565b6011546305d6a92f60e01b906001600160a01b0316613481578215612b8d57600c546000858152600e602052604090819020549051631f62fca760e21b815260048101919091526001600160a01b0384811660248301526044820186905290911690637d8bf29c90606401600060405180830381600087803b1580156133c157600080fd5b505af11580156133d5573d6000803e3d6000fd5b5050505060008051602061587c833981519152846040516133f891815260200190565b60405180910390a1816001600160a01b03167faa7132423a39dd83fa4078bd4d7b7d0d0d614b9837f0fd5d23e1afd9aa9bc29d8585613436886122be565b60c0015160008151811061344c5761344c6152a9565b6020026020010151604051613474939291909283526020830191909152604082015260600190565b60405180910390a2611e4d565b60115460405134916001600160a01b031690636fe1967c9033906134a990869060200161567e565b604051602081830303815290604052846040518463ffffffff1660e01b81526004016134d793929190615693565b600060405180830381600087803b1580156134f157600080fd5b505af1158015613505573d6000803e3d6000fd5b505050506000841115612c2a57600c546000868152600e602052604090819020549051631f62fca760e21b815260048101919091526001600160a01b0385811660248301526044820187905290911690637d8bf29c90606401600060405180830381600087803b15801561357857600080fd5b505af115801561358c573d6000803e3d6000fd5b5050505060008051602061587c833981519152856040516135af91815260200190565b60405180910390a1826001600160a01b03167faa7132423a39dd83fa4078bd4d7b7d0d0d614b9837f0fd5d23e1afd9aa9bc29d86866135ed896122be565b60c00151600081518110613603576136036152a9565b602002602001015160405161362b939291909283526020830191909152604082015260600190565b60405180910390a26011546040516001600160a01b03909116906393163a91903390612c5290869060200161567e565b600080602084146136775761367284860186615719565b613685565b613683848601866149cc565b835b90969095509350505050565b601154600090630b26df1f60e31b906001600160a01b031661394757826136b781612dca565b846136c181612e20565b683635c9adc5dea000008611156137125760405162461bcd60e51b81526020600482015260156024820152741cdc1b1a5d08185b5bdd5b9d08195e18d959591959605a1b6044820152606401610833565b60408051808201909152600080825260208201526000898152600d60205260409020546001600160a01b031680825261374c908790612e70565b602082810191825260008b8152600e90915260408082205483518352918190209190915582519151905163caf0887d60e01b8152600481018c90526024810191909152604481018990526001600160a01b039091169063caf0887d90606401600060405180830381600087803b1580156137c557600080fd5b505af11580156137d9573d6000803e3d6000fd5b50508251604051630452783960e11b8152600481018d90526001600160a01b0390911692506308a4f0729150602401600060405180830381865afa158015613825573d6000803e3d6000fd5b505050506040513d6000823e601f3d908101601f1916820160405261384d91908101906154fb565b60008151811061385f5761385f6152a9565b60200260200101516000149450856001600160a01b0316886001600160a01b03167ffdcb522eed2b51337da9525342f1aba4b128316db8c3d89a3c8095b88a35ec598b84602001516138b08e6122be565b60c001516000815181106138c6576138c66152a9565b60200260200101516138db87602001516122be565b60c001516000815181106138f1576138f16152a9565b6020908102919091018101516040805195865291850193909352830152606082015260800160405180910390a360405189815260008051602061587c8339815191529060200160405180910390a1505050612b5b565b60115460405134916001600160a01b031690636fe1967c90339061396f90869060200161567e565b604051602081830303815290604052846040518463ffffffff1660e01b815260040161399d93929190615693565b600060405180830381600087803b1580156139b757600080fd5b505af11580156139cb573d6000803e3d6000fd5b50505050836139d981612dca565b856139e381612e20565b683635c9adc5dea00000871115613a345760405162461bcd60e51b81526020600482015260156024820152741cdc1b1a5d08185b5bdd5b9d08195e18d959591959605a1b6044820152606401610833565b604080518082019091526000808252602082015260008a8152600d60205260409020546001600160a01b0316808252613a6e908890612e70565b602082810191825260008c8152600e90915260408082205483518352918190209190915582519151905163caf0887d60e01b8152600481018d90526024810191909152604481018a90526001600160a01b039091169063caf0887d90606401600060405180830381600087803b158015613ae757600080fd5b505af1158015613afb573d6000803e3d6000fd5b50508251604051630452783960e11b8152600481018e90526001600160a01b0390911692506308a4f0729150602401600060405180830381865afa158015613b47573d6000803e3d6000fd5b505050506040513d6000823e601f3d908101601f19168201604052613b6f91908101906154fb565b600081518110613b8157613b816152a9565b60200260200101516000149550866001600160a01b0316896001600160a01b03167ffdcb522eed2b51337da9525342f1aba4b128316db8c3d89a3c8095b88a35ec598c8460200151613bd28f6122be565b60c00151600081518110613be857613be86152a9565b6020026020010151613bfd87602001516122be565b60c00151600081518110613c1357613c136152a9565b6020908102919091018101516040805195865291850193909352830152606082015260800160405180910390a36040518a815260008051602061587c8339815191529060200160405180910390a150506011546040516001600160a01b0390911691506393163a91903390612af990869060200161567e565b6011546318703c4f60e11b906001600160a01b0316613e83576001600160a01b03841615801590613ce157506000828152600d6020526040902054613ce1906001600160a01b0316631ffb811f60e01b613320565b15613d62576000828152600d602052604090819020549051631ffb811f60e01b81526001600160a01b03868116600483015285811660248301526044820185905290911690631ffb811f90606401600060405180830381600087803b158015613d4957600080fd5b505af1158015613d5d573d6000803e3d6000fd5b505050505b6001600160a01b03831660009081526010602052604090205460ff1680613da157506001600160a01b03841660009081526010602052604090205460ff165b613e78576001600160a01b0384166000908152600f602052604090205460ff16613ddd5760405162461bcd60e51b81526004016108339061573e565b600c546000838152600e602052604090819020549051632b2b4da960e21b8152600481019190915242916001600160a01b03169063acad36a490602401602060405180830381865afa158015613e37573d6000803e3d6000fd5b505050506040513d601f19601f82011682018060405250810190613e5b919061520d565b10613e785760405162461bcd60e51b815260040161083390615780565b612b8d848484614391565b60115460405134916001600160a01b031690636fe1967c903390613eab90869060200161567e565b604051602081830303815290604052846040518463ffffffff1660e01b8152600401613ed993929190615693565b600060405180830381600087803b158015613ef357600080fd5b505af1158015613f07573d6000803e3d6000fd5b505050506001600160a01b03851615801590613f4757506000838152600d6020526040902054613f47906001600160a01b0316631ffb811f60e01b613320565b15613fc8576000838152600d602052604090819020549051631ffb811f60e01b81526001600160a01b03878116600483015286811660248301526044820186905290911690631ffb811f90606401600060405180830381600087803b158015613faf57600080fd5b505af1158015613fc3573d6000803e3d6000fd5b505050505b6001600160a01b03841660009081526010602052604090205460ff168061400757506001600160a01b03851660009081526010602052604090205460ff165b6140de576001600160a01b0385166000908152600f602052604090205460ff166140435760405162461bcd60e51b81526004016108339061573e565b600c546000848152600e602052604090819020549051632b2b4da960e21b8152600481019190915242916001600160a01b03169063acad36a490602401602060405180830381865afa15801561409d573d6000803e3d6000fd5b505050506040513d601f19601f820116820180604052508101906140c1919061520d565b106140de5760405162461bcd60e51b815260040161083390615780565b612c2a858585614391565b60006001600160a01b0384163b156141df57604051630a85bd0160e11b81526001600160a01b0385169063150b7a029061412d9033908990889088906004016157c6565b6020604051808303816000875af1925050508015614168575060408051601f3d908101601f1916820190925261416591810190615803565b60015b6141c5573d808015614196576040519150601f19603f3d011682016040523d82523d6000602084013e61419b565b606091505b5080516000036141bd5760405162461bcd60e51b8152600401610833906156c7565b805181602001fd5b6001600160e01b031916630a85bd0160e11b149050610ecb565b506001610ecb565b611bc1828260405180602001604052806000815250614502565b60008072184f03e93ff9f4daa797ed6e38ed64bf6a1f0160401b83106142405772184f03e93ff9f4daa797ed6e38ed64bf6a1f0160401b830492506040015b6d04ee2d6d415b85acef8100000000831061426c576d04ee2d6d415b85acef8100000000830492506020015b662386f26fc10000831061428a57662386f26fc10000830492506010015b6305f5e10083106142a2576305f5e100830492506008015b61271083106142b657612710830492506004015b606483106142c8576064830492506002015b600a8310610ff85760010192915050565b60006142ec826301ffc9a760e01b61430c565b80156106be5750614305826001600160e01b031961430c565b1592915050565b604080516001600160e01b03198316602480830191909152825180830390910181526044909101909152602080820180516001600160e01b03166301ffc9a760e01b178152825160009392849283928392918391908a617530fa92503d9150600051905082801561437e575060208210155b801561189c575015159695505050505050565b826001600160a01b03166143a4826118a7565b6001600160a01b0316146143ca5760405162461bcd60e51b815260040161083390615820565b6001600160a01b03821661442c5760405162461bcd60e51b8152602060048201526024808201527f4552433732313a207472616e7366657220746f20746865207a65726f206164646044820152637265737360e01b6064820152608401610833565b6144398383836001614535565b826001600160a01b031661444c826118a7565b6001600160a01b0316146144725760405162461bcd60e51b815260040161083390615820565b600081815260046020908152604080832080546001600160a01b03199081169091556001600160a01b0387811680865260038552838620805460001901905590871680865283862080546001019055868652600290945282852080549092168417909155905184937fddf252ad1be2c89b69c2b068fc378daa952ba7f163c4a11628f55a4df523b3ef91a4505050565b61450c8383614669565b61451960008484846140e9565b6108d45760405162461bcd60e51b8152600401610833906156c7565b60018111156145a45760405162461bcd60e51b815260206004820152603560248201527f455243373231456e756d657261626c653a20636f6e7365637574697665207472604482015274185b9cd9995c9cc81b9bdd081cdd5c1c1bdc9d1959605a1b6064820152608401610833565b816001600160a01b038516614600576145fb81600880546000838152600960205260408120829055600182018355919091527ff3f7a9fe364faab93b216da50a3214154f22a0a2b415b23a84c8169e8b636ee30155565b614623565b836001600160a01b0316856001600160a01b0316146146235761462385826147e4565b6001600160a01b03841661463f5761463a81614881565b614662565b846001600160a01b0316846001600160a01b031614614662576146628482614930565b5050505050565b6001600160a01b0382166146bf5760405162461bcd60e51b815260206004820181905260248201527f4552433732313a206d696e7420746f20746865207a65726f20616464726573736044820152606401610833565b6146c8816122a1565b156147155760405162461bcd60e51b815260206004820152601c60248201527f4552433732313a20746f6b656e20616c7265616479206d696e746564000000006044820152606401610833565b614723600083836001614535565b61472c816122a1565b156147795760405162461bcd60e51b815260206004820152601c60248201527f4552433732313a20746f6b656e20616c7265616479206d696e746564000000006044820152606401610833565b6001600160a01b038216600081815260036020908152604080832080546001019055848352600290915280822080546001600160a01b0319168417905551839291907fddf252ad1be2c89b69c2b068fc378daa952ba7f163c4a11628f55a4df523b3ef908290a45050565b600060016147f184611995565b6147fb919061526a565b60008381526007602052604090205490915080821461484e576001600160a01b03841660009081526006602090815260408083208584528252808320548484528184208190558352600790915290208190555b5060009182526007602090815260408084208490556001600160a01b039094168352600681528383209183525290812055565b6008546000906148939060019061526a565b600083815260096020526040812054600880549394509092849081106148bb576148bb6152a9565b9060005260206000200154905080600883815481106148dc576148dc6152a9565b600091825260208083209091019290925582815260099091526040808220849055858252812055600880548061491457614914615865565b6001900381819060005260206000200160009055905550505050565b600061493b83611995565b6001600160a01b039093166000908152600660209081526040808320868452825280832085905593825260079052919091209190915550565b6040518060e0016040528060006001600160a01b0316815260200160608152602001600081526020016000815260200160006001600160a01b0316815260200160006001600160a01b03168152602001606081525090565b6000602082840312156149de57600080fd5b5035919050565b60005b83811015614a005781810151838201526020016149e8565b50506000910152565b60008151808452614a218160208601602086016149e5565b601f01601f19169290920160200192915050565b600060018060a01b0380835116845260208084015160e082870152614a5d60e0870182614a09565b905060408501516040870152606085015160608701528260808601511660808701528260a08601511660a087015260c0850151925085810360c087015280835180835283830191508385019450600092505b80831015614acf5784518252938301936001929092019190830190614aaf565b509695505050505050565b6020815260006120196020830184614a35565b6001600160e01b03198116811461211857600080fd5b600060208284031215614b1557600080fd5b813561201981614aed565b6020815260006120196020830184614a09565b6001600160a01b038116811461211857600080fd5b60008060408385031215614b5b57600080fd5b8235614b6681614b33565b946020939093013593505050565b60008083601f840112614b8657600080fd5b5081356001600160401b03811115614b9d57600080fd5b602083019150836020828501011115614bb557600080fd5b9250929050565b600080600080600060808688031215614bd457600080fd5b8535614bdf81614b33565b94506020860135614bef81614b33565b93506040860135925060608601356001600160401b03811115614c1157600080fd5b614c1d88828901614b74565b969995985093965092949392505050565b600080600060608486031215614c4357600080fd5b8335614c4e81614b33565b92506020840135614c5e81614b33565b929592945050506040919091013590565b600060208284031215614c8157600080fd5b813561201981614b33565b60008060008060808587031215614ca257600080fd5b8435614cad81614b33565b93506020850135614cbd81614b33565b9250604085013591506060850135614cd481614b33565b939692955090935050565b60008060408385031215614cf257600080fd5b50508035926020909101359150565b60008083601f840112614d1357600080fd5b5081356001600160401b03811115614d2a57600080fd5b6020830191508360208260051b8501011115614bb557600080fd5b600080600080600060808688031215614d5d57600080fd5b8535614d6881614b33565b945060208601356001600160401b03811115614d8357600080fd5b614d8f88828901614d01565b9699909850959660408101359660609091013595509350505050565b6000602080830181845280855180835260408601915060408160051b870101925083870160005b82811015614e0057603f19888603018452614dee858351614a35565b94509285019290850190600101614dd2565b5092979650505050505050565b600080600060408486031215614e2257600080fd5b8335614e2d81614b33565b925060208401356001600160401b03811115614e4857600080fd5b614e5486828701614d01565b9497909650939450505050565b634e487b7160e01b600052604160045260246000fd5b604051601f8201601f191681016001600160401b0381118282101715614e9f57614e9f614e61565b604052919050565b60006001600160401b03821115614ec057614ec0614e61565b50601f01601f191660200190565b6000614ee1614edc84614ea7565b614e77565b9050828152838383011115614ef557600080fd5b828260208301376000602084830101529392505050565b600060208284031215614f1e57600080fd5b81356001600160401b03811115614f3457600080fd5b8201601f81018413614f4557600080fd5b610ecb84823560208401614ece565b60008060008060608587031215614f6a57600080fd5b8435614f7581614b33565b935060208501356001600160401b03811115614f9057600080fd5b614f9c87828801614d01565b9598909750949560400135949350505050565b801515811461211857600080fd5b60008060408385031215614fd057600080fd5b8235614fdb81614b33565b91506020830135614feb81614faf565b809150509250929050565b600080600080600080600060c0888a03121561501157600080fd5b873561501c81614b33565b9650602088013561502c81614b33565b9550604088013561503c81614b33565b945060608801359350608088013561505381614b33565b925060a08801356001600160401b0381111561506e57600080fd5b61507a8a828b01614b74565b989b979a50959850939692959293505050565b60006020828403121561509f57600080fd5b813561201981614faf565b600080600080608085870312156150c057600080fd5b84356150cb81614b33565b935060208501356150db81614b33565b92506040850135915060608501356001600160401b038111156150fd57600080fd5b8501601f8101871361510e57600080fd5b61511d87823560208401614ece565b91505092959194509250565b6000806040838503121561513c57600080fd5b823561514781614b33565b91506020830135614feb81614b33565b600181811c9082168061516b57607f821691505b60208210810361518b57634e487b7160e01b600052602260045260246000fd5b50919050565b81835281816020850137506000828201602090810191909152601f909101601f19169091010190565b6001600160a01b03851681526060602082018190526000906151df9083018587615191565b905082604083015295945050505050565b60006020828403121561520257600080fd5b815161201981614faf565b60006020828403121561521f57600080fd5b5051919050565b6000806040838503121561523957600080fd5b825161524481614b33565b6020939093015192949293505050565b634e487b7160e01b600052601160045260246000fd5b81810381811115610ff857610ff8615254565b80820180821115610ff857610ff8615254565b6000600182016152a2576152a2615254565b5060010190565b634e487b7160e01b600052603260045260246000fd5b600082516152d18184602087016149e5565b9190910192915050565b60008083546152e981615157565b60018281168015615301576001811461531657615345565b60ff1984168752821515830287019450615345565b8760005260208060002060005b8581101561533c5781548a820152908401908201615323565b50505082870194505b50929695505050505050565b601f8211156108d457600081815260208120601f850160051c810160208610156153785750805b601f850160051c820191505b8181101561539757828155600101615384565b505050505050565b81516001600160401b038111156153b8576153b8614e61565b6153cc816153c68454615157565b84615351565b602080601f83116001811461540157600084156153e95750858301515b600019600386901b1c1916600185901b178555615397565b600085815260208120601f198616915b8281101561543057888601518255948401946001909101908401615411565b508582101561544e5787850151600019600388901b60f8161c191681555b5050505050600190811b01905550565b6040815260006154716040830185614a09565b8281036020840152610aab8185614a09565b6001600160a01b038681168252602082018690528416604082015260806060820181905260009061189c9083018486615191565b60208082526024908201527f4669726577616c6c436f6e73756d65723a206e6f74206669726577616c6c20616040820152633236b4b760e11b606082015260800190565b6000602080838503121561550e57600080fd5b82516001600160401b038082111561552557600080fd5b818501915085601f83011261553957600080fd5b81518181111561554b5761554b614e61565b8060051b915061555c848301614e77565b818152918301840191848101908884111561557657600080fd5b938501935b838510156155945784518252938501939085019061557b565b98975050505050505050565b600083516155b28184602088016149e5565b8351908301906155c68183602088016149e5565b01949350505050565b6000602082840312156155e157600080fd5b815161201981614b33565b6000602082840312156155fe57600080fd5b81516001600160401b0381111561561457600080fd5b8201601f8101841361562557600080fd5b8051615633614edc82614ea7565b81815285602083850101111561564857600080fd5b610aab8260208301602086016149e5565b6000806040838503121561566c57600080fd5b825191506020830151614feb81614faf565b6001600160e01b031991909116815260040190565b6001600160a01b03841681526060602082018190526000906156b790830185614a09565b9050826040830152949350505050565b60208082526032908201527f4552433732313a207472616e7366657220746f206e6f6e20455243373231526560408201527131b2b4bb32b91034b6b83632b6b2b73a32b960711b606082015260800190565b6000806040838503121561572c57600080fd5b823591506020830135614feb81614b33565b60208082526022908201527f506f6f6c207472616e73666572206e6f7420617070726f76656420627920757360408201526132b960f11b606082015260800190565b60208082526026908201527f43616e2774207472616e73666572206265666f72652074726164652073746172604082015265742074696d6560d01b606082015260800190565b6001600160a01b03858116825284166020820152604081018390526080606082018190526000906157f990830184614a09565b9695505050505050565b60006020828403121561581557600080fd5b815161201981614aed565b60208082526025908201527f4552433732313a207472616e736665722066726f6d20696e636f72726563742060408201526437bbb732b960d91b606082015260800190565b634e487b7160e01b600052603160045260246000fdfef8e1a15aba9398e019f0b49df1a4fde98ee17ae345cb5f6b5e2c27f5033e8ce7a26469706673582212203c822c9ed91de8d1ea3e84d569dea510352719afd8e1484338be9ec005b14ed764736f6c63430008130033",
  "linkReferences": {},
  "deployedLinkReferences": {}
}