{
  "_format": "hh-sol-artifact-1",
  "contractName": "MockProvider",
  "sourceName": "contracts/mock/MockProvider.sol",
  "abi": [
    {
      "inputs": [
        {
          "internalType": "contract ILockDealNFT",
          "name": "_lockDealNFT",
          "type": "address"
        },
        {
          "internalType": "address",
          "name": "__provider",
          "type": "address"
        }
      ],
      "stateMutability": "nonpayable",
      "type": "constructor"
    },
    {
      "inputs": [],
      "name": "_provider",
      "outputs": [
        {
          "internalType": "contract IProvider",
          "name": "",
          "type": "address"
        }
      ],
      "stateMutability": "view",
      "type": "function"
    },
    {
      "inputs": [
        {
          "internalType": "address[]",
          "name": "addresses",
          "type": "address[]"
        },
        {
          "internalType": "uint256[]",
          "name": "params",
          "type": "uint256[]"
        },
        {
          "internalType": "bytes",
          "name": "signature",
          "type": "bytes"
        }
      ],
      "name": "createNewPool",
      "outputs": [
        {
          "internalType": "uint256",
          "name": "poolId",
          "type": "uint256"
        }
      ],
      "stateMutability": "nonpayable",
      "type": "function"
    },
    {
      "inputs": [
        {
          "internalType": "address[]",
          "name": "addresses",
          "type": "address[]"
        },
        {
          "internalType": "uint256[]",
          "name": "params",
          "type": "uint256[]"
        }
      ],
      "name": "createNewPoolWithTransfer",
      "outputs": [
        {
          "internalType": "uint256",
          "name": "poolId",
          "type": "uint256"
        }
      ],
      "stateMutability": "nonpayable",
      "type": "function"
    },
    {
      "inputs": [
        {
          "internalType": "uint256",
          "name": "poolId",
          "type": "uint256"
        }
      ],
      "name": "getParams",
      "outputs": [
        {
          "internalType": "uint256[]",
          "name": "params",
          "type": "uint256[]"
        }
      ],
      "stateMutability": "view",
      "type": "function"
    },
    {
      "inputs": [],
      "name": "lockDealNFT",
      "outputs": [
        {
          "internalType": "contract ILockDealNFT",
          "name": "",
          "type": "address"
        }
      ],
      "stateMutability": "view",
      "type": "function"
    },
    {
      "inputs": [
        {
          "internalType": "address",
          "name": "owner",
          "type": "address"
        },
        {
          "internalType": "contract IProvider[]",
          "name": "providers",
          "type": "address[]"
        },
        {
          "internalType": "uint256[][]",
          "name": "providerParams",
          "type": "uint256[][]"
        }
      ],
      "name": "registerNewBundlePool",
      "outputs": [
        {
          "internalType": "uint256",
          "name": "poolId",
          "type": "uint256"
        }
      ],
      "stateMutability": "nonpayable",
      "type": "function"
    },
    {
      "inputs": [
        {
          "internalType": "address",
          "name": "owner",
          "type": "address"
        },
        {
          "internalType": "contract IProvider",
          "name": "provider",
          "type": "address"
        }
      ],
      "name": "registerNewRefundPool",
      "outputs": [
        {
          "internalType": "uint256",
          "name": "poolId",
          "type": "uint256"
        }
      ],
      "stateMutability": "nonpayable",
      "type": "function"
    },
    {
      "inputs": [
        {
          "internalType": "uint256",
          "name": "poolId",
          "type": "uint256"
        },
        {
          "internalType": "uint256[]",
          "name": "params",
          "type": "uint256[]"
        }
      ],
      "name": "registerPool",
      "outputs": [],
      "stateMutability": "nonpayable",
      "type": "function"
    },
    {
      "inputs": [
        {
          "internalType": "uint256",
          "name": "poolId",
          "type": "uint256"
        },
        {
          "internalType": "uint256",
          "name": "amount",
          "type": "uint256"
        }
      ],
      "name": "withdraw",
      "outputs": [],
      "stateMutability": "nonpayable",
      "type": "function"
    }
  ],
  "bytecode": "0x608060405234801561001057600080fd5b5060405161130838038061130883398101604081905261002f91610078565b600180546001600160a01b039384166001600160a01b031991821617909155600080549290931691161790556100b2565b6001600160a01b038116811461007557600080fd5b50565b6000806040838503121561008b57600080fd5b825161009681610060565b60208401519092506100a781610060565b809150509250929050565b611247806100c16000396000f3fe608060405234801561001057600080fd5b50600436106100935760003560e01c8063441a3e7011610066578063441a3e701461012057806345d0958114610135578063546635d414610148578063cbd0163c1461015b578063e9a9fce21461016e57600080fd5b806308a4f0721461009857806314877c38146100c15780632b227bc4146100e25780632e7d07881461010d575b600080fd5b6100ab6100a6366004610baa565b610181565b6040516100b89190610bfe565b60405180910390f35b6100d46100cf366004610d3a565b6101f9565b6040519081526020016100b8565b6001546100f5906001600160a01b031681565b6040516001600160a01b0390911681526020016100b8565b6100d461011b366004610e11565b610386565b61013361012e366004610e94565b61062f565b005b6100d4610143366004610eb6565b6106aa565b6000546100f5906001600160a01b031681565b6100d4610169366004610f1f565b61091f565b61013361017c366004610f58565b610b42565b600054604051630452783960e11b8152600481018390526060916001600160a01b0316906308a4f07290602401600060405180830381865afa1580156101cb573d6000803e3d6000fd5b505050506040513d6000823e601f3d908101601f191682016040526101f39190810190610f9f565b92915050565b6001546000906001600160a01b031663604e38ed8787848161021d5761021d611030565b90506020020160208101906102329190611046565b8888600181811061024557610245611030565b905060200201602081019061025a9190611046565b8989600081811061026d5761026d611030565b90506020020160208101906102829190611046565b8860008151811061029557610295611030565b60209081029190910101516000546040516001600160e01b031960e088901b1681526102d595949392916001600160a01b0316908b908b90600401611063565b6020604051808303816000875af11580156102f4573d6000803e3d6000fd5b505050506040513d601f19601f8201168201806040525081019061031891906110c9565b6000546040516374d4fe7160e11b81529192506001600160a01b03169063e9a9fce29061034b90849088906004016110e2565b600060405180830381600087803b15801561036557600080fd5b505af1158015610379573d6000803e3d6000fd5b5050505095945050505050565b60015460008054604051630bfbed3560e41b81526001600160a01b03898116600483015291821660248201529192169063bfbed350906044016020604051808303816000875af11580156103de573d6000803e3d6000fd5b505050506040513d601f19601f8201168201806040525081019061040291906110c9565b90506000805b8581101561057e576001546000546001600160a01b039182169163bfbed350911689898581811061043b5761043b611030565b90506020020160208101906104509190611046565b6040516001600160e01b031960e085901b1681526001600160a01b039283166004820152911660248201526044016020604051808303816000875af115801561049d573d6000803e3d6000fd5b505050506040513d601f19601f820116820180604052508101906104c191906110c9565b91508686828181106104d5576104d5611030565b90506020020160208101906104ea9190611046565b6001600160a01b031663e9a9fce28387878581811061050b5761050b611030565b905060200281019061051d9190611103565b6040518463ffffffff1660e01b815260040161053b9392919061114d565b600060405180830381600087803b15801561055557600080fd5b505af1158015610569573d6000803e3d6000fd5b50505050806105779061118e565b9050610408565b506040805160018082528183019092526000916020808301908036833701905050905081816000815181106105b5576105b5611030565b60209081029190910101526000546040516374d4fe7160e11b81526001600160a01b039091169063e9a9fce2906105f290869085906004016110e2565b600060405180830381600087803b15801561060c57600080fd5b505af1158015610620573d6000803e3d6000fd5b50505050505095945050505050565b600054604051630441a3e760e41b815260048101849052602481018390526001600160a01b039091169063441a3e709060440160408051808303816000875af1158015610680573d6000803e3d6000fd5b505050506040513d601f19601f820116820180604052508101906106a491906111ca565b50505050565b6000838360018181106106bf576106bf611030565b90506020020160208101906106d49190611046565b6001600160a01b03166323b872dd858560008181106106f5576106f5611030565b905060200201602081019061070a9190611046565b60015485516001600160a01b0390911690869060009061072c5761072c611030565b60209081029190910101516040516001600160e01b031960e086901b1681526001600160a01b03938416600482015292909116602483015260448201526064016020604051808303816000875af115801561078b573d6000803e3d6000fd5b505050506040513d601f19601f820116820180604052508101906107af91906111f6565b506001546001600160a01b03166327608c3685856000816107d2576107d2611030565b90506020020160208101906107e79190611046565b868660018181106107fa576107fa611030565b905060200201602081019061080f9190611046565b8560008151811061082257610822611030565b602090810291909101015160005460405160e086901b6001600160e01b03191681526001600160a01b039485166004820152928416602484015260448301919091529190911660648201526084016020604051808303816000875af115801561088f573d6000803e3d6000fd5b505050506040513d601f19601f820116820180604052508101906108b391906110c9565b6000546040516374d4fe7160e11b81529192506001600160a01b03169063e9a9fce2906108e690849086906004016110e2565b600060405180830381600087803b15801561090057600080fd5b505af1158015610914573d6000803e3d6000fd5b505050509392505050565b60015460008054604051630bfbed3560e41b81526001600160a01b03868116600483015291821660248201529192169063bfbed350906044016020604051808303816000875af1158015610977573d6000803e3d6000fd5b505050506040513d601f19601f8201168201806040525081019061099b91906110c9565b600154600054604051630bfbed3560e41b81526001600160a01b0391821660048201528582166024820152929350169063bfbed350906044016020604051808303816000875af11580156109f3573d6000803e3d6000fd5b505050506040513d601f19601f82011682018060405250810190610a1791906110c9565b50600154604051630bfbed3560e41b81526001600160a01b0385811660048301528481166024830152600092169063bfbed350906044016020604051808303816000875af1158015610a6d573d6000803e3d6000fd5b505050506040513d601f19601f82011682018060405250810190610a9191906110c9565b60408051600180825281830190925291925060009190602080830190803683370190505090508181600081518110610acb57610acb611030565b60209081029190910101526000546040516374d4fe7160e11b81526001600160a01b039091169063e9a9fce290610b0890869085906004016110e2565b600060405180830381600087803b158015610b2257600080fd5b505af1158015610b36573d6000803e3d6000fd5b50505050505092915050565b6000546040516374d4fe7160e11b81526001600160a01b039091169063e9a9fce290610b7490859085906004016110e2565b600060405180830381600087803b158015610b8e57600080fd5b505af1158015610ba2573d6000803e3d6000fd5b505050505050565b600060208284031215610bbc57600080fd5b5035919050565b600081518084526020808501945080840160005b83811015610bf357815187529582019590820190600101610bd7565b509495945050505050565b602081526000610c116020830184610bc3565b9392505050565b60008083601f840112610c2a57600080fd5b50813567ffffffffffffffff811115610c4257600080fd5b6020830191508360208260051b8501011115610c5d57600080fd5b9250929050565b634e487b7160e01b600052604160045260246000fd5b604051601f8201601f1916810167ffffffffffffffff81118282101715610ca357610ca3610c64565b604052919050565b600067ffffffffffffffff821115610cc557610cc5610c64565b5060051b60200190565b600082601f830112610ce057600080fd5b81356020610cf5610cf083610cab565b610c7a565b82815260059290921b84018101918181019086841115610d1457600080fd5b8286015b84811015610d2f5780358352918301918301610d18565b509695505050505050565b600080600080600060608688031215610d5257600080fd5b853567ffffffffffffffff80821115610d6a57600080fd5b610d7689838a01610c18565b90975095506020880135915080821115610d8f57600080fd5b610d9b89838a01610ccf565b94506040880135915080821115610db157600080fd5b818801915088601f830112610dc557600080fd5b813581811115610dd457600080fd5b896020828501011115610de657600080fd5b9699959850939650602001949392505050565b6001600160a01b0381168114610e0e57600080fd5b50565b600080600080600060608688031215610e2957600080fd5b8535610e3481610df9565b9450602086013567ffffffffffffffff80821115610e5157600080fd5b610e5d89838a01610c18565b90965094506040880135915080821115610e7657600080fd5b50610e8388828901610c18565b969995985093965092949392505050565b60008060408385031215610ea757600080fd5b50508035926020909101359150565b600080600060408486031215610ecb57600080fd5b833567ffffffffffffffff80821115610ee357600080fd5b610eef87838801610c18565b90955093506020860135915080821115610f0857600080fd5b50610f1586828701610ccf565b9150509250925092565b60008060408385031215610f3257600080fd5b8235610f3d81610df9565b91506020830135610f4d81610df9565b809150509250929050565b60008060408385031215610f6b57600080fd5b82359150602083013567ffffffffffffffff811115610f8957600080fd5b610f9585828601610ccf565b9150509250929050565b60006020808385031215610fb257600080fd5b825167ffffffffffffffff811115610fc957600080fd5b8301601f81018513610fda57600080fd5b8051610fe8610cf082610cab565b81815260059190911b8201830190838101908783111561100757600080fd5b928401925b828410156110255783518252928401929084019061100c565b979650505050505050565b634e487b7160e01b600052603260045260246000fd5b60006020828403121561105857600080fd5b8135610c1181610df9565b6001600160a01b03888116825287811660208301528681166040830152606082018690528416608082015260c060a0820181905281018290526000828460e0840137600060e0848401015260e0601f19601f850116830101905098975050505050505050565b6000602082840312156110db57600080fd5b5051919050565b8281526040602082015260006110fb6040830184610bc3565b949350505050565b6000808335601e1984360301811261111a57600080fd5b83018035915067ffffffffffffffff82111561113557600080fd5b6020019150600581901b3603821315610c5d57600080fd5b838152604060208201819052810182905260006001600160fb1b0383111561117457600080fd5b8260051b8085606085013791909101606001949350505050565b6000600182016111ae57634e487b7160e01b600052601160045260246000fd5b5060010190565b805180151581146111c557600080fd5b919050565b600080604083850312156111dd57600080fd5b825191506111ed602084016111b5565b90509250929050565b60006020828403121561120857600080fd5b610c11826111b556fea2646970667358221220ba6c127b515d0ad63e23c89cee9243dac8af6ea08033fe21a34afb295dd403fd64736f6c63430008130033",
  "linkReferences": {},
  "deployedLinkReferences": {}
}