{
  "_format": "hh-sol-artifact-1",
  "contractName": "MockTransfer",
  "sourceName": "contracts/mock/MockTransfer.sol",
  "abi": [
    {
      "inputs": [
        {
          "internalType": "contract ILockDealNFT",
          "name": "_lockDealNFT",
          "type": "address"
        }
      ],
      "stateMutability": "nonpayable",
      "type": "constructor"
    },
    {
      "anonymous": false,
      "inputs": [
        {
          "indexed": true,
          "internalType": "uint256",
          "name": "poolId",
          "type": "uint256"
        },
        {
          "indexed": false,
          "internalType": "uint256[]",
          "name": "params",
          "type": "uint256[]"
        }
      ],
      "name": "UpdateParams",
      "type": "event"
    },
    {
      "inputs": [
        {
          "internalType": "address",
          "name": "",
          "type": "address"
        },
        {
          "internalType": "address",
          "name": "",
          "type": "address"
        },
        {
          "internalType": "uint256",
          "name": "",
          "type": "uint256"
        }
      ],
      "name": "beforeTransfer",
      "outputs": [],
      "stateMutability": "nonpayable",
      "type": "function"
    },
    {
      "inputs": [
        {
          "internalType": "address[]",
          "name": "addresses",
          "type": "address[]"
        },
        {
          "internalType": "uint256[]",
          "name": "params",
          "type": "uint256[]"
        },
        {
          "internalType": "bytes",
          "name": "signature",
          "type": "bytes"
        }
      ],
      "name": "createNewPool",
      "outputs": [
        {
          "internalType": "uint256",
          "name": "poolId",
          "type": "uint256"
        }
      ],
      "stateMutability": "nonpayable",
      "type": "function"
    },
    {
      "inputs": [],
      "name": "currentParamsTargetLength",
      "outputs": [
        {
          "internalType": "uint256",
          "name": "",
          "type": "uint256"
        }
      ],
      "stateMutability": "view",
      "type": "function"
    },
    {
      "inputs": [],
      "name": "firewallAdmin",
      "outputs": [
        {
          "internalType": "address",
          "name": "",
          "type": "address"
        }
      ],
      "stateMutability": "view",
      "type": "function"
    },
    {
      "inputs": [
        {
          "internalType": "uint256",
          "name": "poolId",
          "type": "uint256"
        }
      ],
      "name": "getParams",
      "outputs": [
        {
          "internalType": "uint256[]",
          "name": "params",
          "type": "uint256[]"
        }
      ],
      "stateMutability": "view",
      "type": "function"
    },
    {
      "inputs": [
        {
          "internalType": "uint256",
          "name": "",
          "type": "uint256"
        }
      ],
      "name": "getSubProvidersPoolIds",
      "outputs": [
        {
          "internalType": "uint256[]",
          "name": "poolIds",
          "type": "uint256[]"
        }
      ],
      "stateMutability": "view",
      "type": "function"
    },
    {
      "inputs": [
        {
          "internalType": "uint256",
          "name": "poolId",
          "type": "uint256"
        }
      ],
      "name": "getWithdrawableAmount",
      "outputs": [
        {
          "internalType": "uint256",
          "name": "",
          "type": "uint256"
        }
      ],
      "stateMutability": "view",
      "type": "function"
    },
    {
      "inputs": [],
      "name": "isBeforeTransferCalled",
      "outputs": [
        {
          "internalType": "bool",
          "name": "",
          "type": "bool"
        }
      ],
      "stateMutability": "view",
      "type": "function"
    },
    {
      "inputs": [],
      "name": "lockDealNFT",
      "outputs": [
        {
          "internalType": "contract ILockDealNFT",
          "name": "",
          "type": "address"
        }
      ],
      "stateMutability": "view",
      "type": "function"
    },
    {
      "inputs": [],
      "name": "name",
      "outputs": [
        {
          "internalType": "string",
          "name": "",
          "type": "string"
        }
      ],
      "stateMutability": "view",
      "type": "function"
    },
    {
      "inputs": [
        {
          "internalType": "uint256",
          "name": "",
          "type": "uint256"
        }
      ],
      "name": "poolIdToAmount",
      "outputs": [
        {
          "internalType": "uint256",
          "name": "",
          "type": "uint256"
        }
      ],
      "stateMutability": "view",
      "type": "function"
    },
    {
      "inputs": [
        {
          "internalType": "uint256",
          "name": "poolId",
          "type": "uint256"
        },
        {
          "internalType": "uint256[]",
          "name": "params",
          "type": "uint256[]"
        }
      ],
      "name": "registerPool",
      "outputs": [],
      "stateMutability": "nonpayable",
      "type": "function"
    },
    {
      "inputs": [
        {
          "internalType": "address",
          "name": "_firewall",
          "type": "address"
        }
      ],
      "name": "setFirewall",
      "outputs": [],
      "stateMutability": "nonpayable",
      "type": "function"
    },
    {
      "inputs": [
        {
          "internalType": "address",
          "name": "_firewallAdmin",
          "type": "address"
        }
      ],
      "name": "setFirewallAdmin",
      "outputs": [],
      "stateMutability": "nonpayable",
      "type": "function"
    },
    {
      "inputs": [
        {
          "internalType": "uint256",
          "name": "oldPoolId",
          "type": "uint256"
        },
        {
          "internalType": "uint256",
          "name": "newPoolId",
          "type": "uint256"
        },
        {
          "internalType": "uint256",
          "name": "ratio",
          "type": "uint256"
        }
      ],
      "name": "split",
      "outputs": [],
      "stateMutability": "nonpayable",
      "type": "function"
    },
    {
      "inputs": [
        {
          "internalType": "bytes4",
          "name": "interfaceId",
          "type": "bytes4"
        }
      ],
      "name": "supportsInterface",
      "outputs": [
        {
          "internalType": "bool",
          "name": "",
          "type": "bool"
        }
      ],
      "stateMutability": "view",
      "type": "function"
    },
    {
      "inputs": [
        {
          "internalType": "uint256",
          "name": "poolId",
          "type": "uint256"
        }
      ],
      "name": "withdraw",
      "outputs": [
        {
          "internalType": "uint256",
          "name": "withdrawnAmount",
          "type": "uint256"
        },
        {
          "internalType": "bool",
          "name": "isFinal",
          "type": "bool"
        }
      ],
      "stateMutability": "nonpayable",
      "type": "function"
    },
    {
      "inputs": [
        {
          "internalType": "uint256",
          "name": "poolId",
          "type": "uint256"
        },
        {
          "internalType": "uint256",
          "name": "amount",
          "type": "uint256"
        }
      ],
      "name": "withdraw",
      "outputs": [
        {
          "internalType": "uint256",
          "name": "withdrawnAmount",
          "type": "uint256"
        },
        {
          "internalType": "bool",
          "name": "isFinal",
          "type": "bool"
        }
      ],
      "stateMutability": "nonpayable",
      "type": "function"
    }
  ],
  "bytecode": "0x60806040523480156200001157600080fd5b5060405162001c1038038062001c108339810160408190526200003491620000f6565b600380546001600160a01b03199081169091556004805490911633179055806001600160a01b038116620000a05760405162461bcd60e51b815260206004820152600f60248201526e696e76616c6964206164647265737360881b604482015260640160405180910390fd5b600280546001600160a01b0319166001600160a01b03831617905560408051808201909152600c81526b2232b0b6283937bb34b232b960a11b6020820152600190620000ed9082620001cd565b50505062000299565b6000602082840312156200010957600080fd5b81516001600160a01b03811681146200012157600080fd5b9392505050565b634e487b7160e01b600052604160045260246000fd5b600181811c908216806200015357607f821691505b6020821081036200017457634e487b7160e01b600052602260045260246000fd5b50919050565b601f821115620001c857600081815260208120601f850160051c81016020861015620001a35750805b601f850160051c820191505b81811015620001c457828155600101620001af565b5050505b505050565b81516001600160401b03811115620001e957620001e962000128565b6200020181620001fa84546200013e565b846200017a565b602080601f831160018114620002395760008415620002205750858301515b600019600386901b1c1916600185901b178555620001c4565b600085815260208120601f198616915b828110156200026a5788860151825594840194600190910190840162000249565b5085821015620002895787850151600019600388901b60f8161c191681555b5050505050600190811b01905550565b61196780620002a96000396000f3fe608060405234801561001057600080fd5b50600436106101165760003560e01c8063734b7198116100a2578063caf0887d11610071578063caf0887d146102a1578063d1438c3f146102b4578063e9a9fce2146102c8578063f05c8582146102db578063f7d646b0146102ee57600080fd5b8063734b7198146102475780637ad7f1081461025a578063875f43841461026e5780638c36d02d1461028e57600080fd5b806314877c38116100e957806314877c38146101a65780631ffb811f146101b95780632b227bc4146101e15780632e1a7d4d1461020c578063441a3e701461023457600080fd5b806301ffc9a71461011b57806306fdde031461014357806308a4f072146101585780631189edd414610178575b600080fd5b61012e6101293660046113a2565b6102f5565b60405190151581526020015b60405180910390f35b61014b610320565b60405161013a9190611412565b61016b610166366004611425565b6103ae565b60405161013a919061143e565b610198610186366004611425565b60006020819052908152604090205481565b60405190815260200161013a565b6101986101b43660046114c7565b610407565b6101df6101c73660046115a9565b50506004805460ff60a01b1916600160a01b17905550565b005b6002546101f4906001600160a01b031681565b6040516001600160a01b03909116815260200161013a565b61021f61021a366004611425565b61071a565b6040805192835290151560208301520161013a565b61021f6102423660046115e5565b61085e565b6101df610255366004611607565b610980565b60045461012e90600160a01b900460ff1681565b61019861027c366004611425565b60009081526020819052604090205490565b6101df61029c366004611607565b610a2b565b6101df6102af366004611622565b610a77565b61016b6102c2366004611425565b50606090565b6101df6102d636600461164e565b610c70565b6004546101f4906001600160a01b031681565b6001610198565b60006001600160e01b03198216631ffb811f60e01b148061031a575061031a82610d69565b92915050565b6001805461032d9061169a565b80601f01602080910402602001604051908101604052809291908181526020018280546103599061169a565b80156103a65780601f1061037b576101008083540402835291602001916103a6565b820191906000526020600020905b81548152906001019060200180831161038957829003601f168201915b505050505081565b60008181526020819052604090819020548151600180825281840190935260609281602001602082028036833701905050915080826000815181106103f5576103f56116d4565b60200260200101818152505050919050565b6003546000906001600160a01b031661052c578560026104278282610dd4565b8560016104348282610e28565b6002546001600160a01b031663604e38ed8c8c600081610456576104566116d4565b905060200201602081019061046b9190611607565b8d8d600181811061047e5761047e6116d4565b90506020020160208101906104939190611607565b338d8d60008181106104a7576104a76116d4565b90506020020135308d8d6040518863ffffffff1660e01b81526004016104d39796959493929190611713565b6020604051808303816000875af11580156104f2573d6000803e3d6000fd5b505050506040513d601f19601f820116820180604052508101906105169190611764565b9450610523858a8a610e70565b50505050610710565b600354604051631bf8659f60e21b815234916001600160a01b031690636fe1967c906105639033906000903690879060040161177d565b600060405180830381600087803b15801561057d57600080fd5b505af1158015610591573d6000803e3d6000fd5b505050508787905060026105a58282610dd4565b8660016105b28282610e28565b6002546001600160a01b031663604e38ed8d8d6000816105d4576105d46116d4565b90506020020160208101906105e99190611607565b8e8e60018181106105fc576105fc6116d4565b90506020020160208101906106119190611607565b338e8e6000818110610625576106256116d4565b90506020020135308e8e6040518863ffffffff1660e01b81526004016106519796959493929190611713565b6020604051808303816000875af1158015610670573d6000803e3d6000fd5b505050506040513d601f19601f820116820180604052508101906106949190611764565b95506106a1868b8b610e70565b50506003546040516393163a9160e01b81526001600160a01b0390911692506393163a9191506106dc9033906000903690879060040161177d565b600060405180830381600087803b1580156106f657600080fd5b505af115801561070a573d6000803e3d6000fd5b50505050505b9695505050505050565b60035460009081906001600160a01b03166107605761073761107b565b610756836107518560009081526020819052604090205490565b6110e8565b9094909350915050565b600354604051631bf8659f60e21b815234916001600160a01b031690636fe1967c906107979033906000903690879060040161177d565b600060405180830381600087803b1580156107b157600080fd5b505af11580156107c5573d6000803e3d6000fd5b505050506107d161107b565b6107eb846107518660009081526020819052604090205490565b6003546040516393163a9160e01b81529295509093506001600160a01b0316906393163a91906108269033906000903690879060040161177d565b600060405180830381600087803b15801561084057600080fd5b505af1158015610854573d6000803e3d6000fd5b5050505050915091565b60035460009081906001600160a01b031661088f5761087b6112c3565b61088584846110e8565b9092509050610979565b600354604051631bf8659f60e21b815234916001600160a01b031690636fe1967c906108c69033906000903690879060040161177d565b600060405180830381600087803b1580156108e057600080fd5b505af11580156108f4573d6000803e3d6000fd5b505050506109006112c3565b61090a85856110e8565b6003546040516393163a9160e01b81529295509093506001600160a01b0316906393163a91906109459033906000903690879060040161177d565b600060405180830381600087803b15801561095f57600080fd5b505af1158015610973573d6000803e3d6000fd5b50505050505b9250929050565b6004546001600160a01b031633146109b35760405162461bcd60e51b81526004016109aa906117b3565b60405180910390fd5b6001600160a01b038116610a095760405162461bcd60e51b815260206004820152601e60248201527f4669726577616c6c436f6e73756d65723a207a65726f2061646472657373000060448201526064016109aa565b600480546001600160a01b0319166001600160a01b0392909216919091179055565b6004546001600160a01b03163314610a555760405162461bcd60e51b81526004016109aa906117b3565b600380546001600160a01b0319166001600160a01b0392909216919091179055565b6003546001600160a01b0316610b1357610a8f6112c3565b600083815260208190526040812054610aa8908361137b565b600085815260208190526040902054909150811115610ad95760405162461bcd60e51b81526004016109aa906117f7565b60008481526020819052604081208054839290610af7908490611856565b9091555050600092835260208390526040909220919091555050565b600354604051631bf8659f60e21b815234916001600160a01b031690636fe1967c90610b4a9033906000903690879060040161177d565b600060405180830381600087803b158015610b6457600080fd5b505af1158015610b78573d6000803e3d6000fd5b50505050610b846112c3565b600084815260208190526040812054610b9d908461137b565b600086815260208190526040902054909150811115610bce5760405162461bcd60e51b81526004016109aa906117f7565b60008581526020819052604081208054839290610bec908490611856565b90915550506000848152602081905260408082209290925560035491516393163a9160e01b81526001600160a01b03909216916393163a9191610c38913391903690879060040161177d565b600060405180830381600087803b158015610c5257600080fd5b505af1158015610c66573d6000803e3d6000fd5b5050505050505050565b6003546001600160a01b0316610ca757610c886112c3565b806001610c958282610e28565b610ca0858585610e70565b5050505050565b600354604051631bf8659f60e21b815234916001600160a01b031690636fe1967c90610cde9033906000903690879060040161177d565b600060405180830381600087803b158015610cf857600080fd5b505af1158015610d0c573d6000803e3d6000fd5b50505050610d186112c3565b816001610d258282610e28565b610d30868686610e70565b50506003546040516393163a9160e01b81526001600160a01b03909116906393163a9190610c389033906000903690879060040161177d565b60006001600160e01b0319821663b075456560e01b1480610d9a57506001600160e01b031982166329c8a06d60e01b145b80610db557506001600160e01b03198216630441a3e760e41b145b8061031a57506301ffc9a760e01b6001600160e01b031983161461031a565b80821015610e245760405162461bcd60e51b815260206004820152601860248201527f696e76616c696420616464726573736573206c656e677468000000000000000060448201526064016109aa565b5050565b80821015610e245760405162461bcd60e51b81526020600482015260156024820152740d2dcecc2d8d2c840e0c2e4c2dae640d8cadccee8d605b1b60448201526064016109aa565b60035463677df66b60e01b906001600160a01b0316610ef85782826000818110610e9c57610e9c6116d4565b9050602002013560008086815260200190815260200160002081905550837f8a8d0156781437c66d28625f74e4d2f9d979f409f4eb3066b5986977323058af8484604051610eeb929190611869565b60405180910390a2611075565b600354604080516001600160e01b031984166020820152815160048183030181526024820192839052631bf8659f60e21b90925234926001600160a01b031691636fe1967c91610f4e91339186906028016118a2565b600060405180830381600087803b158015610f6857600080fd5b505af1158015610f7c573d6000803e3d6000fd5b5050505083836000818110610f9357610f936116d4565b9050602002013560008087815260200190815260200160002081905550847f8a8d0156781437c66d28625f74e4d2f9d979f409f4eb3066b5986977323058af8585604051610fe2929190611869565b60405180910390a2600354604080516001600160e01b0319851660208201528151600481830301815260248201928390526393163a9160e01b9092526001600160a01b03909216916393163a91916110419133919086906028016118a2565b600060405180830381600087803b15801561105b57600080fd5b505af115801561106f573d6000803e3d6000fd5b50505050505b50505050565b6002546001600160a01b031633146110e65760405162461bcd60e51b815260206004820152602860248201527f6f6e6c79204e465420636f6e74726163742063616e2063616c6c207468697320604482015267333ab731ba34b7b760c11b60648201526084016109aa565b565b600354600090819063278afc8b60e21b906001600160a01b03166111595760008581526020819052604090205484116111545760008581526020819052604081208054869290611139908490611856565b90915550506000858152602081905260409020548493501591505b6112bb565b600354604080516001600160e01b031984166020820152815160048183030181526024820192839052631bf8659f60e21b90925234926001600160a01b031691636fe1967c916111af91339186906028016118a2565b600060405180830381600087803b1580156111c957600080fd5b505af11580156111dd573d6000803e3d6000fd5b505050600087815260208190526040902054861190506112305760008681526020819052604081208054879290611215908490611856565b90915550506000868152602081905260409020548594501592505b600354604080516001600160e01b0319851660208201528151600481830301815260248201928390526393163a9160e01b9092526001600160a01b03909216916393163a91916112879133919086906028016118a2565b600060405180830381600087803b1580156112a157600080fd5b505af11580156112b5573d6000803e3d6000fd5b50505050505b509250929050565b6002546040516326749ad760e01b81523360048201526001600160a01b03909116906326749ad790602401602060405180830381865afa15801561130b573d6000803e3d6000fd5b505050506040513d601f19601f8201168201806040525081019061132f91906118d6565b6110e65760405162461bcd60e51b815260206004820152601860248201527f696e76616c69642070726f76696465722061646472657373000000000000000060448201526064016109aa565b6000683635c9adc5dea0000061139183856118f8565b61139b919061190f565b9392505050565b6000602082840312156113b457600080fd5b81356001600160e01b03198116811461139b57600080fd5b6000815180845260005b818110156113f2576020818501810151868301820152016113d6565b506000602082860101526020601f19601f83011685010191505092915050565b60208152600061139b60208301846113cc565b60006020828403121561143757600080fd5b5035919050565b6020808252825182820181905260009190848201906040850190845b818110156114765783518352928401929184019160010161145a565b50909695505050505050565b60008083601f84011261149457600080fd5b50813567ffffffffffffffff8111156114ac57600080fd5b6020830191508360208260051b850101111561097957600080fd5b600080600080600080606087890312156114e057600080fd5b863567ffffffffffffffff808211156114f857600080fd5b6115048a838b01611482565b9098509650602089013591508082111561151d57600080fd5b6115298a838b01611482565b9096509450604089013591508082111561154257600080fd5b818901915089601f83011261155657600080fd5b81358181111561156557600080fd5b8a602082850101111561157757600080fd5b6020830194508093505050509295509295509295565b80356001600160a01b03811681146115a457600080fd5b919050565b6000806000606084860312156115be57600080fd5b6115c78461158d565b92506115d56020850161158d565b9150604084013590509250925092565b600080604083850312156115f857600080fd5b50508035926020909101359150565b60006020828403121561161957600080fd5b61139b8261158d565b60008060006060848603121561163757600080fd5b505081359360208301359350604090920135919050565b60008060006040848603121561166357600080fd5b83359250602084013567ffffffffffffffff81111561168157600080fd5b61168d86828701611482565b9497909650939450505050565b600181811c908216806116ae57607f821691505b6020821081036116ce57634e487b7160e01b600052602260045260246000fd5b50919050565b634e487b7160e01b600052603260045260246000fd5b81835281816020850137506000828201602090810191909152601f909101601f19169091010190565b6001600160a01b03888116825287811660208301528681166040830152606082018690528416608082015260c060a0820181905260009061175790830184866116ea565b9998505050505050505050565b60006020828403121561177657600080fd5b5051919050565b6001600160a01b03851681526060602082018190526000906117a290830185876116ea565b905082604083015295945050505050565b60208082526024908201527f4669726577616c6c436f6e73756d65723a206e6f74206669726577616c6c20616040820152633236b4b760e11b606082015260800190565b60208082526029908201527f53706c697420616d6f756e7420657863656564732074686520617661696c61626040820152681b1948185b5bdd5b9d60ba1b606082015260800190565b634e487b7160e01b600052601160045260246000fd5b8181038181111561031a5761031a611840565b6020808252810182905260006001600160fb1b0383111561188957600080fd5b8260051b80856040850137919091016040019392505050565b6001600160a01b03841681526060602082018190526000906118c6908301856113cc565b9050826040830152949350505050565b6000602082840312156118e857600080fd5b8151801515811461139b57600080fd5b808202811582820484141761031a5761031a611840565b60008261192c57634e487b7160e01b600052601260045260246000fd5b50049056fea26469706673582212208f1eb6e9ea1bcd1582468011b73180dc840df816696ccbcf1412c21cb7bc282564736f6c63430008130033",
  "linkReferences": {},
  "deployedLinkReferences": {}
}