{
  "_format": "hh-sol-artifact-1",
  "contractName": "Bundable",
  "sourceName": "contracts/ERC165/Bundable.sol",
  "abi": [
    {
      "inputs": [],
      "name": "_INTERFACE_ID_BUNDABLE",
      "outputs": [
        {
          "internalType": "bytes4",
          "name": "",
          "type": "bytes4"
        }
      ],
      "stateMutability": "view",
      "type": "function"
    }
  ],
  "bytecode": "0x6098610038600b82828239805160001a607314602b57634e487b7160e01b600052600060045260246000fd5b30600052607381538281f3fe730000000000000000000000000000000000000000301460806040526004361060335760003560e01c8063fd6dd533146038575b600080fd5b60456329c8a06d60e01b81565b6040516001600160e01b0319909116815260200160405180910390f3fea26469706673582212200b7d4674e1ef9f58179d6fd41d43c391f6947671df3f249218b3618715ec280464736f6c63430008130033",
  "linkReferences": {},
  "deployedLinkReferences": {}
}