{
  "_format": "hh-sol-artifact-1",
  "contractName": "MockVaultManager",
  "sourceName": "contracts/mock/MockVaultManager.sol",
  "abi": [
    {
      "inputs": [],
      "name": "Id",
      "outputs": [
        {
          "internalType": "uint256",
          "name": "",
          "type": "uint256"
        }
      ],
      "stateMutability": "view",
      "type": "function"
    },
    {
      "inputs": [
        {
          "internalType": "address",
          "name": "_tokenAddress",
          "type": "address"
        },
        {
          "internalType": "uint256",
          "name": "amount",
          "type": "uint256"
        }
      ],
      "name": "depositByToken",
      "outputs": [
        {
          "internalType": "uint256",
          "name": "vaultId",
          "type": "uint256"
        }
      ],
      "stateMutability": "nonpayable",
      "type": "function"
    },
    {
      "inputs": [
        {
          "internalType": "uint256",
          "name": "",
          "type": "uint256"
        },
        {
          "internalType": "uint256",
          "name": "",
          "type": "uint256"
        }
      ],
      "name": "royaltyInfo",
      "outputs": [
        {
          "internalType": "address",
          "name": "receiver",
          "type": "address"
        },
        {
          "internalType": "uint256",
          "name": "royaltyAmount",
          "type": "uint256"
        }
      ],
      "stateMutability": "pure",
      "type": "function"
    },
    {
      "inputs": [
        {
          "internalType": "address",
          "name": "_tokenAddress",
          "type": "address"
        },
        {
          "internalType": "uint256",
          "name": "",
          "type": "uint256"
        },
        {
          "internalType": "address",
          "name": "",
          "type": "address"
        },
        {
          "internalType": "bytes",
          "name": "signature",
          "type": "bytes"
        }
      ],
      "name": "safeDeposit",
      "outputs": [
        {
          "internalType": "uint256",
          "name": "vaultId",
          "type": "uint256"
        }
      ],
      "stateMutability": "nonpayable",
      "type": "function"
    },
    {
      "inputs": [
        {
          "internalType": "bool",
          "name": "status",
          "type": "bool"
        }
      ],
      "name": "setTransferStatus",
      "outputs": [],
      "stateMutability": "nonpayable",
      "type": "function"
    },
    {
      "inputs": [
        {
          "internalType": "address",
          "name": "",
          "type": "address"
        }
      ],
      "name": "tokenToVaultId",
      "outputs": [
        {
          "internalType": "uint256",
          "name": "",
          "type": "uint256"
        }
      ],
      "stateMutability": "view",
      "type": "function"
    },
    {
      "inputs": [],
      "name": "transfers",
      "outputs": [
        {
          "internalType": "bool",
          "name": "",
          "type": "bool"
        }
      ],
      "stateMutability": "view",
      "type": "function"
    },
    {
      "inputs": [
        {
          "internalType": "uint256",
          "name": "_vaultId",
          "type": "uint256"
        }
      ],
      "name": "vaultIdToTokenAddress",
      "outputs": [
        {
          "internalType": "address",
          "name": "",
          "type": "address"
        }
      ],
      "stateMutability": "view",
      "type": "function"
    },
    {
      "inputs": [
        {
          "internalType": "uint256",
          "name": "",
          "type": "uint256"
        }
      ],
      "name": "vaultIdToTradeStartTime",
      "outputs": [
        {
          "internalType": "uint256",
          "name": "",
          "type": "uint256"
        }
      ],
      "stateMutability": "view",
      "type": "function"
    },
    {
      "inputs": [
        {
          "internalType": "uint256",
          "name": "_vaultId",
          "type": "uint256"
        },
        {
          "internalType": "address",
          "name": "to",
          "type": "address"
        },
        {
          "internalType": "uint256",
          "name": "_amount",
          "type": "uint256"
        }
      ],
      "name": "withdrawByVaultId",
      "outputs": [],
      "stateMutability": "nonpayable",
      "type": "function"
    }
  ],
  "bytecode": "0x60806040526002805460ff19166001179055600060035534801561002257600080fd5b50610665806100326000396000f3fe608060405234801561001057600080fd5b506004361061009e5760003560e01c8063493770cc11610066578063493770cc146101695780635a131fb01461018c5780637d8bf29c1461019f578063ab5e28c5146101b2578063acad36a4146101cf57600080fd5b8063285ee338146100a35780632a55205a146100c95780633378358b146100ff57806339a090c9146101405780633fe9778514610149575b600080fd5b6100b66100b13660046103cf565b6101e2565b6040519081526020015b60405180910390f35b6100e06100d73660046104ab565b50600091829150565b604080516001600160a01b0390931683526020830191909152016100c0565b61012861010d3660046104cd565b6000908152600160205260409020546001600160a01b031690565b6040516001600160a01b0390911681526020016100c0565b6100b660035481565b6100b66101573660046104e6565b60006020819052908152604090205481565b61018a610177366004610512565b6002805460ff1916911515919091179055565b005b6100b661019a36600461052f565b61028f565b61018a6101ad366004610559565b505050565b6002546101bf9060ff1681565b60405190151581526020016100c0565b6100b66101dd3660046104cd565b61031a565b604051687369676e617475726560b81b60208201526000906029016040516020818303038152906040528051906020012082604051602001610224919061058e565b604051602081830303815290604052805190602001201461027d5760405162461bcd60e51b815260206004820152600f60248201526e77726f6e67207369676e617475726560881b604482015260640160405180910390fd5b61028685610348565b95945050505050565b6040516323b872dd60e01b8152336004820152306024820152604481018290526000906001600160a01b038416906323b872dd906064016020604051808303816000875af11580156102e5573d6000803e3d6000fd5b505050506040513d601f19601f8201168201806040525081019061030991906105bd565b5061031383610348565b9392505050565b60025460009060ff16610337576103324260016105f0565b610342565b610342600142610603565b92915050565b600060036000815461035990610616565b9182905550600081815260016020908152604080832080546001600160a01b039097166001600160a01b031990971687179055948252819052929092208290555090565b80356001600160a01b03811681146103b457600080fd5b919050565b634e487b7160e01b600052604160045260246000fd5b600080600080608085870312156103e557600080fd5b6103ee8561039d565b9350602085013592506104036040860161039d565b9150606085013567ffffffffffffffff8082111561042057600080fd5b818701915087601f83011261043457600080fd5b813581811115610446576104466103b9565b604051601f8201601f19908116603f0116810190838211818310171561046e5761046e6103b9565b816040528281528a602084870101111561048757600080fd5b82602086016020830137600060208483010152809550505050505092959194509250565b600080604083850312156104be57600080fd5b50508035926020909101359150565b6000602082840312156104df57600080fd5b5035919050565b6000602082840312156104f857600080fd5b6103138261039d565b801515811461050f57600080fd5b50565b60006020828403121561052457600080fd5b813561031381610501565b6000806040838503121561054257600080fd5b61054b8361039d565b946020939093013593505050565b60008060006060848603121561056e57600080fd5b8335925061057e6020850161039d565b9150604084013590509250925092565b6000825160005b818110156105af5760208186018101518583015201610595565b506000920191825250919050565b6000602082840312156105cf57600080fd5b815161031381610501565b634e487b7160e01b600052601160045260246000fd5b80820180821115610342576103426105da565b81810381811115610342576103426105da565b600060018201610628576106286105da565b506001019056fea2646970667358221220450f5ba9858389b030d7bcdb1ec7c5f0f2e9833f1f4cdc30ae78c9da51f8231264736f6c63430008130033",
  "linkReferences": {},
  "deployedLinkReferences": {}
}