{
  "_format": "hh-sol-artifact-1",
  "contractName": "Refundble",
  "sourceName": "contracts/ERC165/Refundble.sol",
  "abi": [
    {
      "inputs": [],
      "name": "_INTERFACE_ID_REFUNDABLE",
      "outputs": [
        {
          "internalType": "bytes4",
          "name": "",
          "type": "bytes4"
        }
      ],
      "stateMutability": "view",
      "type": "function"
    }
  ],
  "bytecode": "0x6098610038600b82828239805160001a607314602b57634e487b7160e01b600052600060045260246000fd5b30600052607381538281f3fe730000000000000000000000000000000000000000301460806040526004361060335760003560e01c806386c36c58146038575b600080fd5b604563b075456560e01b81565b6040516001600160e01b0319909116815260200160405180910390f3fea2646970667358221220d98db5a6308bb1699cefa8adcc5ee9fe01451805bc46af0a590b8e153ae5e68564736f6c63430008130033",
  "linkReferences": {},
  "deployedLinkReferences": {}
}