{
  "_format": "hh-sol-artifact-1",
  "contractName": "DealProviderState",
  "sourceName": "contracts/SimpleProviders/DealProvider/DealProviderState.sol",
  "abi": [
    {
      "inputs": [
        {
          "internalType": "uint256",
          "name": "",
          "type": "uint256"
        }
      ],
      "name": "poolIdToAmount",
      "outputs": [
        {
          "internalType": "uint256",
          "name": "",
          "type": "uint256"
        }
      ],
      "stateMutability": "view",
      "type": "function"
    }
  ],
  "bytecode": "0x6080604052348015600f57600080fd5b5060aa8061001e6000396000f3fe6080604052348015600f57600080fd5b506004361060285760003560e01c80631189edd414602d575b600080fd5b604a6038366004605c565b60006020819052908152604090205481565b60405190815260200160405180910390f35b600060208284031215606d57600080fd5b503591905056fea2646970667358221220eae854bd0e035438fb6468bd5f10a54282117cb40e213466c9a764d241ca6bd664736f6c63430008130033",
  "linkReferences": {},
  "deployedLinkReferences": {}
}