{
  "_format": "hh-sol-artifact-1",
  "contractName": "LockDealProvider",
  "sourceName": "contracts/SimpleProviders/LockProvider/LockDealProvider.sol",
  "abi": [
    {
      "inputs": [
        {
          "internalType": "contract ILockDealNFT",
          "name": "_lockDealNFT",
          "type": "address"
        },
        {
          "internalType": "address",
          "name": "_provider",
          "type": "address"
        }
      ],
      "stateMutability": "nonpayable",
      "type": "constructor"
    },
    {
      "anonymous": false,
      "inputs": [
        {
          "indexed": true,
          "internalType": "uint256",
          "name": "poolId",
          "type": "uint256"
        },
        {
          "indexed": false,
          "internalType": "uint256[]",
          "name": "params",
          "type": "uint256[]"
        }
      ],
      "name": "UpdateParams",
      "type": "event"
    },
    {
      "inputs": [
        {
          "internalType": "address[]",
          "name": "addresses",
          "type": "address[]"
        },
        {
          "internalType": "uint256[]",
          "name": "params",
          "type": "uint256[]"
        },
        {
          "internalType": "bytes",
          "name": "signature",
          "type": "bytes"
        }
      ],
      "name": "createNewPool",
      "outputs": [
        {
          "internalType": "uint256",
          "name": "poolId",
          "type": "uint256"
        }
      ],
      "stateMutability": "nonpayable",
      "type": "function"
    },
    {
      "inputs": [],
      "name": "currentParamsTargetLength",
      "outputs": [
        {
          "internalType": "uint256",
          "name": "",
          "type": "uint256"
        }
      ],
      "stateMutability": "view",
      "type": "function"
    },
    {
      "inputs": [],
      "name": "firewallAdmin",
      "outputs": [
        {
          "internalType": "address",
          "name": "",
          "type": "address"
        }
      ],
      "stateMutability": "view",
      "type": "function"
    },
    {
      "inputs": [
        {
          "internalType": "uint256",
          "name": "poolId",
          "type": "uint256"
        }
      ],
      "name": "getParams",
      "outputs": [
        {
          "internalType": "uint256[]",
          "name": "params",
          "type": "uint256[]"
        }
      ],
      "stateMutability": "view",
      "type": "function"
    },
    {
      "inputs": [
        {
          "internalType": "uint256",
          "name": "",
          "type": "uint256"
        }
      ],
      "name": "getSubProvidersPoolIds",
      "outputs": [
        {
          "internalType": "uint256[]",
          "name": "poolIds",
          "type": "uint256[]"
        }
      ],
      "stateMutability": "view",
      "type": "function"
    },
    {
      "inputs": [
        {
          "internalType": "uint256",
          "name": "poolId",
          "type": "uint256"
        }
      ],
      "name": "getWithdrawableAmount",
      "outputs": [
        {
          "internalType": "uint256",
          "name": "",
          "type": "uint256"
        }
      ],
      "stateMutability": "view",
      "type": "function"
    },
    {
      "inputs": [],
      "name": "lockDealNFT",
      "outputs": [
        {
          "internalType": "contract ILockDealNFT",
          "name": "",
          "type": "address"
        }
      ],
      "stateMutability": "view",
      "type": "function"
    },
    {
      "inputs": [],
      "name": "name",
      "outputs": [
        {
          "internalType": "string",
          "name": "",
          "type": "string"
        }
      ],
      "stateMutability": "view",
      "type": "function"
    },
    {
      "inputs": [
        {
          "internalType": "uint256",
          "name": "",
          "type": "uint256"
        }
      ],
      "name": "poolIdToTime",
      "outputs": [
        {
          "internalType": "uint256",
          "name": "",
          "type": "uint256"
        }
      ],
      "stateMutability": "view",
      "type": "function"
    },
    {
      "inputs": [],
      "name": "provider",
      "outputs": [
        {
          "internalType": "contract ISimpleProvider",
          "name": "",
          "type": "address"
        }
      ],
      "stateMutability": "view",
      "type": "function"
    },
    {
      "inputs": [
        {
          "internalType": "uint256",
          "name": "poolId",
          "type": "uint256"
        },
        {
          "internalType": "uint256[]",
          "name": "params",
          "type": "uint256[]"
        }
      ],
      "name": "registerPool",
      "outputs": [],
      "stateMutability": "nonpayable",
      "type": "function"
    },
    {
      "inputs": [
        {
          "internalType": "address",
          "name": "_firewall",
          "type": "address"
        }
      ],
      "name": "setFirewall",
      "outputs": [],
      "stateMutability": "nonpayable",
      "type": "function"
    },
    {
      "inputs": [
        {
          "internalType": "address",
          "name": "_firewallAdmin",
          "type": "address"
        }
      ],
      "name": "setFirewallAdmin",
      "outputs": [],
      "stateMutability": "nonpayable",
      "type": "function"
    },
    {
      "inputs": [
        {
          "internalType": "uint256",
          "name": "oldPoolId",
          "type": "uint256"
        },
        {
          "internalType": "uint256",
          "name": "newPoolId",
          "type": "uint256"
        },
        {
          "internalType": "uint256",
          "name": "ratio",
          "type": "uint256"
        }
      ],
      "name": "split",
      "outputs": [],
      "stateMutability": "nonpayable",
      "type": "function"
    },
    {
      "inputs": [
        {
          "internalType": "bytes4",
          "name": "interfaceId",
          "type": "bytes4"
        }
      ],
      "name": "supportsInterface",
      "outputs": [
        {
          "internalType": "bool",
          "name": "",
          "type": "bool"
        }
      ],
      "stateMutability": "view",
      "type": "function"
    },
    {
      "inputs": [
        {
          "internalType": "uint256",
          "name": "poolId",
          "type": "uint256"
        }
      ],
      "name": "withdraw",
      "outputs": [
        {
          "internalType": "uint256",
          "name": "withdrawnAmount",
          "type": "uint256"
        },
        {
          "internalType": "bool",
          "name": "isFinal",
          "type": "bool"
        }
      ],
      "stateMutability": "nonpayable",
      "type": "function"
    },
    {
      "inputs": [
        {
          "internalType": "uint256",
          "name": "poolId",
          "type": "uint256"
        },
        {
          "internalType": "uint256",
          "name": "amount",
          "type": "uint256"
        }
      ],
      "name": "withdraw",
      "outputs": [
        {
          "internalType": "uint256",
          "name": "withdrawnAmount",
          "type": "uint256"
        },
        {
          "internalType": "bool",
          "name": "isFinal",
          "type": "bool"
        }
      ],
      "stateMutability": "nonpayable",
      "type": "function"
    }
  ],
  "bytecode": "0x60806040523480156200001157600080fd5b5060405162001dc738038062001dc783398101604081905262000034916200013e565b600280546001600160a01b031990811690915560038054909116331790556001600160a01b038216158015906200007357506001600160a01b03811615155b620000b65760405162461bcd60e51b815260206004820152600f60248201526e696e76616c6964206164647265737360881b604482015260640160405180910390fd5b600480546001600160a01b038084166001600160a01b031992831617909255600180549285169290911691909117905560408051808201909152601081526f2637b1b5a232b0b6283937bb34b232b960811b60208201526000906200011c908262000222565b505050620002ee565b6001600160a01b03811681146200013b57600080fd5b50565b600080604083850312156200015257600080fd5b82516200015f8162000125565b6020840151909250620001728162000125565b809150509250929050565b634e487b7160e01b600052604160045260246000fd5b600181811c90821680620001a857607f821691505b602082108103620001c957634e487b7160e01b600052602260045260246000fd5b50919050565b601f8211156200021d57600081815260208120601f850160051c81016020861015620001f85750805b601f850160051c820191505b81811015620002195782815560010162000204565b5050505b505050565b81516001600160401b038111156200023e576200023e6200017d565b62000256816200024f845462000193565b84620001cf565b602080601f8311600181146200028e5760008415620002755750858301515b600019600386901b1c1916600185901b17855562000219565b600085815260208120601f198616915b82811015620002bf578886015182559484019460019091019084016200029e565b5085821015620002de5787850151600019600388901b60f8161c191681555b5050505050600190811b01905550565b611ac980620002fe6000396000f3fe608060405234801561001057600080fd5b506004361061010b5760003560e01c80634b2fbecf116100a2578063caf0887d11610071578063caf0887d14610262578063d1438c3f14610275578063e9a9fce214610289578063f05c85821461029c578063f7d646b0146102af57600080fd5b80634b2fbecf14610207578063734b719814610227578063875f43841461023c5780638c36d02d1461024f57600080fd5b806314877c38116100de57806314877c38146101985780632b227bc4146101b95780632e1a7d4d146101cc578063441a3e70146101f457600080fd5b806301ffc9a71461011057806306fdde0314610138578063085d48831461014d57806308a4f07214610178575b600080fd5b61012361011e3660046114bb565b6102b7565b60405190151581526020015b60405180910390f35b610140610324565b60405161012f9190611532565b600454610160906001600160a01b031681565b6040516001600160a01b03909116815260200161012f565b61018b610186366004611545565b6103b2565b60405161012f919061155e565b6101ab6101a63660046115e7565b6104b4565b60405190815260200161012f565b600154610160906001600160a01b031681565b6101df6101da366004611545565b6107d3565b6040805192835290151560208301520161012f565b6101df6102023660046116ad565b610917565b6101ab610215366004611545565b60056020526000908152604090205481565b61023a6102353660046116cf565b610a39565b005b6101ab61024a366004611545565b610ae4565b61023a61025d3660046116cf565b610b6c565b61023a6102703660046116f8565b610bb8565b61018b610283366004611545565b50606090565b61023a610297366004611724565b610db2565b600354610160906001600160a01b031681565b6101ab610eb7565b60006001600160e01b0319821663b075456560e01b14806102e857506001600160e01b031982166329c8a06d60e01b145b8061030357506001600160e01b03198216630441a3e760e41b145b8061031e57506301ffc9a760e01b6001600160e01b03198316145b92915050565b6000805461033190611770565b80601f016020809104026020016040519081016040528092919081815260200182805461035d90611770565b80156103aa5780601f1061037f576101008083540402835291602001916103aa565b820191906000526020600020905b81548152906001019060200180831161038d57829003601f168201915b505050505081565b6040805160028082526060808301845292602083019080368337505060048054604051630452783960e11b81529182018690529293506001600160a01b03909216916308a4f0729150602401600060405180830381865afa15801561041b573d6000803e3d6000fd5b505050506040513d6000823e601f3d908101601f1916820160405261044391908101906117c0565b6000815181106104555761045561187e565b6020026020010151816000815181106104705761047061187e565b6020026020010181815250506005600083815260200190815260200160002054816001815181106104a3576104a361187e565b602002602001018181525050919050565b6002546000906001600160a01b03166105df578560026104d48282610f40565b856104dd610eb7565b6104e78282610f94565b6001546001600160a01b031663604e38ed8c8c6000816105095761050961187e565b905060200201602081019061051e91906116cf565b8d8d60018181106105315761053161187e565b905060200201602081019061054691906116cf565b338d8d600081811061055a5761055a61187e565b90506020020135308d8d6040518863ffffffff1660e01b815260040161058697969594939291906118bd565b6020604051808303816000875af11580156105a5573d6000803e3d6000fd5b505050506040513d601f19601f820116820180604052508101906105c9919061190e565b94506105d6858a8a610fdc565b505050506107c9565b600254604051631bf8659f60e21b815234916001600160a01b031690636fe1967c9061061690339060009036908790600401611927565b600060405180830381600087803b15801561063057600080fd5b505af1158015610644573d6000803e3d6000fd5b505050508787905060026106588282610f40565b86610661610eb7565b61066b8282610f94565b6001546001600160a01b031663604e38ed8d8d60008161068d5761068d61187e565b90506020020160208101906106a291906116cf565b8e8e60018181106106b5576106b561187e565b90506020020160208101906106ca91906116cf565b338e8e60008181106106de576106de61187e565b90506020020135308e8e6040518863ffffffff1660e01b815260040161070a97969594939291906118bd565b6020604051808303816000875af1158015610729573d6000803e3d6000fd5b505050506040513d601f19601f8201168201806040525081019061074d919061190e565b955061075a868b8b610fdc565b50506002546040516393163a9160e01b81526001600160a01b0390911692506393163a91915061079590339060009036908790600401611927565b600060405180830381600087803b1580156107af57600080fd5b505af11580156107c3573d6000803e3d6000fd5b50505050505b9695505050505050565b60025460009081906001600160a01b0316610826576107f06112f5565b61081c836107fd856103b2565b60008151811061080f5761080f61187e565b6020026020010151611362565b9094909350915050565b600254604051631bf8659f60e21b815234916001600160a01b031690636fe1967c9061085d90339060009036908790600401611927565b600060405180830381600087803b15801561087757600080fd5b505af115801561088b573d6000803e3d6000fd5b505050506108976112f5565b6108a4846107fd866103b2565b6002546040516393163a9160e01b81529295509093506001600160a01b0316906393163a91906108df90339060009036908790600401611927565b600060405180830381600087803b1580156108f957600080fd5b505af115801561090d573d6000803e3d6000fd5b5050505050915091565b60025460009081906001600160a01b031661094857610934611403565b61093e8484611362565b9092509050610a32565b600254604051631bf8659f60e21b815234916001600160a01b031690636fe1967c9061097f90339060009036908790600401611927565b600060405180830381600087803b15801561099957600080fd5b505af11580156109ad573d6000803e3d6000fd5b505050506109b9611403565b6109c38585611362565b6002546040516393163a9160e01b81529295509093506001600160a01b0316906393163a91906109fe90339060009036908790600401611927565b600060405180830381600087803b158015610a1857600080fd5b505af1158015610a2c573d6000803e3d6000fd5b50505050505b9250929050565b6003546001600160a01b03163314610a6c5760405162461bcd60e51b8152600401610a639061195d565b60405180910390fd5b6001600160a01b038116610ac25760405162461bcd60e51b815260206004820152601e60248201527f4669726577616c6c436f6e73756d65723a207a65726f206164647265737300006044820152606401610a63565b600380546001600160a01b0319166001600160a01b0392909216919091179055565b600081815260056020526040812054421015610b0157600061031e565b600480546040516321d7d0e160e21b81529182018490526001600160a01b03169063875f438490602401602060405180830381865afa158015610b48573d6000803e3d6000fd5b505050506040513d601f19601f8201168201806040525081019061031e919061190e565b6003546001600160a01b03163314610b965760405162461bcd60e51b8152600401610a639061195d565b600280546001600160a01b0319166001600160a01b0392909216919091179055565b6002546001600160a01b0316610c5457610bd0611403565b6004805460405163caf0887d60e01b815291820185905260248201849052604482018390526001600160a01b03169063caf0887d90606401600060405180830381600087803b158015610c2257600080fd5b505af1158015610c36573d6000803e3d6000fd5b50505060009384525050600560205260408083205491835290912055565b600254604051631bf8659f60e21b815234916001600160a01b031690636fe1967c90610c8b90339060009036908790600401611927565b600060405180830381600087803b158015610ca557600080fd5b505af1158015610cb9573d6000803e3d6000fd5b50505050610cc5611403565b6004805460405163caf0887d60e01b815291820186905260248201859052604482018490526001600160a01b03169063caf0887d90606401600060405180830381600087803b158015610d1757600080fd5b505af1158015610d2b573d6000803e3d6000fd5b505050600085815260056020526040808220548683528183205560025490516393163a9160e01b81526001600160a01b0390911692506393163a9191610d7a9133919036908790600401611927565b600060405180830381600087803b158015610d9457600080fd5b505af1158015610da8573d6000803e3d6000fd5b5050505050505050565b6002546001600160a01b0316610def57610dca611403565b80610dd3610eb7565b610ddd8282610f94565b610de8858585610fdc565b5050505050565b600254604051631bf8659f60e21b815234916001600160a01b031690636fe1967c90610e2690339060009036908790600401611927565b600060405180830381600087803b158015610e4057600080fd5b505af1158015610e54573d6000803e3d6000fd5b50505050610e60611403565b81610e69610eb7565b610e738282610f94565b610e7e868686610fdc565b50506002546040516393163a9160e01b81526001600160a01b03909116906393163a9190610d7a90339060009036908790600401611927565b6000600460009054906101000a90046001600160a01b03166001600160a01b031663f7d646b06040518163ffffffff1660e01b8152600401602060405180830381865afa158015610f0c573d6000803e3d6000fd5b505050506040513d601f19601f82011682018060405250810190610f30919061190e565b610f3b9060016119a1565b905090565b80821015610f905760405162461bcd60e51b815260206004820152601860248201527f696e76616c696420616464726573736573206c656e67746800000000000000006044820152606401610a63565b5050565b80821015610f905760405162461bcd60e51b81526020600482015260156024820152740d2dcecc2d8d2c840e0c2e4c2dae640d8cadccee8d605b1b6044820152606401610a63565b60025463fe3627e960e01b906001600160a01b03166110eb57828260018181106110085761100861187e565b905060200201354211156110535760405162461bcd60e51b8152602060048201526012602482015271496e76616c69642073746172742074696d6560701b6044820152606401610a63565b828260018181106110665761106661187e565b600087815260056020908152604091829020920293909301359055506004805491516374d4fe7160e11b81526001600160a01b039092169163e9a9fce2916110b491889188918891016119c2565b600060405180830381600087803b1580156110ce57600080fd5b505af11580156110e2573d6000803e3d6000fd5b505050506112ef565b600254604080516001600160e01b031984166020820152815160048183030181526024820192839052631bf8659f60e21b90925234926001600160a01b031691636fe1967c916111419133918690602801611a03565b600060405180830381600087803b15801561115b57600080fd5b505af115801561116f573d6000803e3d6000fd5b50505050838360018181106111865761118661187e565b905060200201354211156111d15760405162461bcd60e51b8152602060048201526012602482015271496e76616c69642073746172742074696d6560701b6044820152606401610a63565b838360018181106111e4576111e461187e565b600088815260056020908152604091829020920293909301359055506004805491516374d4fe7160e11b81526001600160a01b039092169163e9a9fce29161123291899189918991016119c2565b600060405180830381600087803b15801561124c57600080fd5b505af1158015611260573d6000803e3d6000fd5b5050600254604080516001600160e01b0319871660208201528151600481830301815260248201928390526393163a9160e01b9092526001600160a01b0390921693506393163a9192506112bb913391908690602801611a03565b600060405180830381600087803b1580156112d557600080fd5b505af11580156112e9573d6000803e3d6000fd5b50505050505b50505050565b6001546001600160a01b031633146113605760405162461bcd60e51b815260206004820152602860248201527f6f6e6c79204e465420636f6e74726163742063616e2063616c6c207468697320604482015267333ab731ba34b7b760c11b6064820152608401610a63565b565b60008061136e84610ae4565b6004549092506001600160a01b031663441a3e70858486116113905785611392565b845b6040516001600160e01b031960e085901b1681526004810192909252602482015260440160408051808303816000875af11580156113d4573d6000803e3d6000fd5b505050506040513d601f19601f820116820180604052508101906113f89190611a4c565b909590945092505050565b6001546040516326749ad760e01b81523360048201526001600160a01b03909116906326749ad790602401602060405180830381865afa15801561144b573d6000803e3d6000fd5b505050506040513d601f19601f8201168201806040525081019061146f9190611a78565b6113605760405162461bcd60e51b815260206004820152601860248201527f696e76616c69642070726f7669646572206164647265737300000000000000006044820152606401610a63565b6000602082840312156114cd57600080fd5b81356001600160e01b0319811681146114e557600080fd5b9392505050565b6000815180845260005b81811015611512576020818501810151868301820152016114f6565b506000602082860101526020601f19601f83011685010191505092915050565b6020815260006114e560208301846114ec565b60006020828403121561155757600080fd5b5035919050565b6020808252825182820181905260009190848201906040850190845b818110156115965783518352928401929184019160010161157a565b50909695505050505050565b60008083601f8401126115b457600080fd5b50813567ffffffffffffffff8111156115cc57600080fd5b6020830191508360208260051b8501011115610a3257600080fd5b6000806000806000806060878903121561160057600080fd5b863567ffffffffffffffff8082111561161857600080fd5b6116248a838b016115a2565b9098509650602089013591508082111561163d57600080fd5b6116498a838b016115a2565b9096509450604089013591508082111561166257600080fd5b818901915089601f83011261167657600080fd5b81358181111561168557600080fd5b8a602082850101111561169757600080fd5b6020830194508093505050509295509295509295565b600080604083850312156116c057600080fd5b50508035926020909101359150565b6000602082840312156116e157600080fd5b81356001600160a01b03811681146114e557600080fd5b60008060006060848603121561170d57600080fd5b505081359360208301359350604090920135919050565b60008060006040848603121561173957600080fd5b83359250602084013567ffffffffffffffff81111561175757600080fd5b611763868287016115a2565b9497909650939450505050565b600181811c9082168061178457607f821691505b6020821081036117a457634e487b7160e01b600052602260045260246000fd5b50919050565b634e487b7160e01b600052604160045260246000fd5b600060208083850312156117d357600080fd5b825167ffffffffffffffff808211156117eb57600080fd5b818501915085601f8301126117ff57600080fd5b815181811115611811576118116117aa565b8060051b604051601f19603f83011681018181108582111715611836576118366117aa565b60405291825284820192508381018501918883111561185457600080fd5b938501935b8285101561187257845184529385019392850192611859565b98975050505050505050565b634e487b7160e01b600052603260045260246000fd5b81835281816020850137506000828201602090810191909152601f909101601f19169091010190565b6001600160a01b03888116825287811660208301528681166040830152606082018690528416608082015260c060a082018190526000906119019083018486611894565b9998505050505050505050565b60006020828403121561192057600080fd5b5051919050565b6001600160a01b038516815260606020820181905260009061194c9083018587611894565b905082604083015295945050505050565b60208082526024908201527f4669726577616c6c436f6e73756d65723a206e6f74206669726577616c6c20616040820152633236b4b760e11b606082015260800190565b8082018082111561031e57634e487b7160e01b600052601160045260246000fd5b838152604060208201819052810182905260006001600160fb1b038311156119e957600080fd5b8260051b8085606085013791909101606001949350505050565b6001600160a01b0384168152606060208201819052600090611a27908301856114ec565b9050826040830152949350505050565b80518015158114611a4757600080fd5b919050565b60008060408385031215611a5f57600080fd5b82519150611a6f60208401611a37565b90509250929050565b600060208284031215611a8a57600080fd5b6114e582611a3756fea2646970667358221220ddd27a5c956173dcac3bd7991e1bcea90c19d38b7c6ee25c68be75270fda604c64736f6c63430008130033",
  "linkReferences": {},
  "deployedLinkReferences": {}
}